S01F000070726F6A6563745F776974685F72746F735F31323132352E7372656372
S3150000000040700020D54B0000FD490000D14B000098
S31500000010D14B0000D14B0000D14B0000D14B00006A
S315000000200000000000000000000000002D3300006A
S31500000030D14B00000000000045330000AD33000046
S31500000040D54000006D400000494100008941000094
S31500000050593B0000CD3A0000093C0000513C00002D
S31500000060593B0000CD3A0000093C0000513C00001D
S31500000070000000000000000000000000000000007A
S31500000080000000000000000000000000000000006A
S31500000090000000000000000000000000000000005A
S315000000A0000000000000000000000000000000004A
S315000000B0000000000000000000000000000000003A
S315000000C0000000000000000000000000000000002A
S315000000D0000000000000000000000000000000001A
S315000000E0000000000000000000000000000000000A
S315000000F000000000000000000000000000000000FA
S3150000010000000000000000000000000000000000E9
S3150000011000000000000000000000000000000000D9
S3150000012000000000000000000000000000000000C9
S3150000013000000000000000000000000000000000B9
S3150000014000000000000000000000000000000000A9
S315000001500000000000000000000000000000000099
S315000001600000000000000000000000000000000089
S315000001700000000000000000000000000000000079
S315000001800000000000000000000000000000000069
S315000001900000000000000000000000000000000059
S315000001A00000000000000000000000000000000049
S315000001B00000000000000000000000000000000039
S315000001C00348044B834202D0034B03B118477047E0
S315000001D0980300209803002000000000064B074902
S315000001E0C91A891048BF0131491003D0044B0BB11D
S315000001F001481847704700BF980300209803002065
S315000002000000000010B5064C237843B9FFF7D8FF6D
S31500000210044B13B10448AFF300800123237010BDD3
S31500000220B8030020000000008015030008B5054B48
S315000002301BB105490548AFF30080BDE80840FFF74C
S31500000240CDBF00BF00000000BC03002080150300E6
S3150000025030B583B0044608F010FE022829D92A21B9
S31500000260204608F043FD28B3031B002B21DD0025A3
S31500000270B0F801301022294601A8ADF804308DF8F7
S31500000280065007F023FE94F90130621C2A2B08BFA2
S31500000290472108D0294623B1594012F9013F2A2B9C
S315000002A0F9D181F04701401AB0FA80F0400903B055
S315000002B030BD002003B030BD2DE9F0432DED048B99
S315000002C00C46A3B000210746642209A808F0C6FC24
S315000002D020467E4908F020FD002800F0F280002428
S315000002E07A4E09AD08F0C2FC03463146002045F8B7
S315000002F0043B013408F010FD0028F3D10E980C9B46
S315000003000A9990F90080132207F12C0093F90060F6
S3150000031008F0D9FC0023532E87F83F3011D04E2E1B
S315000003200FD044B109AD05EB840455F8040B06F073
S3150000033023FEA542F9D1012023B0BDEC048BBDE814
S31500000340F0830025DDF82C900222494603A8ADF87B
S315000003500C5005958DF80E50069508F0B4FC09F181
S315000003600201072205A808F0AEFC0A22294603A8C6
S3150000037007F0ACFD08EE100A05A806F0F1FD51ECF9
S31500000380100B06F09DFD9FED529A07EE100AB8EE8F
S31500000390C88AC7EE097ADDF834900322494604A8D4
S315000003A038EE278A04950795089508F08CFC0722F5
S315000003B009F1030107A808F086FC29460A2204A8C9
S315000003C007F084FD019007A806F0CAFDB5EE408A45
S315000003D0F1EE10FA51EC100B63D0DDED017AF8EE78
S315000003E0E78A06F06DFD07EE100AC7EE097A78EE89
S315000003F0A78AF5EE408AF1EE10FA52D0DFED357A93
S31500000400B4EEE78AF1EE10FA4BD5DFED337AF4EE6F
S31500000410E78AF1EE10FA44D518EE100A06F0F8FC59
S315000004203E72C7E9000118EE900A06F0F1FC87F863
S315000004301880C7E90401129806F092FD51EC100BE2
S3150000044006F03EFD07EE900AF5EE407AF1EE10FA60
S3150000045008BFD7ED077A0A22C7ED077A0021109860
S3150000046007F034FD0A22002138620F9807F02EFDAE
S315000004700346002BD4BF002301231198BB6206F06C
S315000004806FFD51EC100B06F01BFD07EE900AF5EE22
S31500000490407AF1EE10FA08BFD7ED097AC7ED097A6E
S315000004A03FE744B109AD05EB840455F8040B06F0AB
S315000004B063FDA542F9D1002023B0BDEC048BBDE855
S315000004C0F0830146034604461BE700BF44B600001E
S315000004D0000070420000B442000034432DE9F043AE
S315000004E00C469BB064220021064601A808F0B6FB24
S315000004F02046244908F010FC044600283FD0002777
S31500000500DFF880900DF10408204608F0B6FC451C83
S31500000510284606F029FD21462A4648F8040B08F02D
S315000005209FFC4946002008F0F7FB013704460028E7
S31500000530EAD1039C204600210A2207F0C7FC0128C5
S31500000540D4BF00200120002101AC03AB0FADB06287
S3150000055053F8042F92F9002002B10131AB42F7D1D2
S31500000560316247B101AB03EB870754F8040B06F081
S3150000057003FDBC42F9D101201BB0BDE8F08307465C
S31500000580D8E700BF44B600002DE9F0432DED048BFB
S315000005900C46A1B064220021804607A808F05EFB45
S315000005A02046544908F0B8FB0446002800F0A08015
S315000005B00026DFF8409107AF204608F05EFC451C98
S315000005C0284606F0D1FC21462A4647F8040B08F0D7
S315000005D047FC4946002008F09FFB013604460028E8
S315000005E0EAD1099C94F90050532D07D04E2D05D021
S315000005F0002021B0BDEC048BBDE8F083089B0A22E5
S31500000600D3F8020033F8024B03909B88002101A81F
S31500000610ADF81030ADF8044007F058FC002107464D
S3150000062003A807F073FB0A9B0B9CD3F8030094F90D
S315000006300090059098781C888DF80A00B3F807306A
S315000006400A22002102A8F0EE408AADF80840ADF873
S31500000650183007F03BFC0021044605A807F056FBBE
S31500000660B0EE408AC4B3B5EE400AF1EE10FA33D0CC
S3150000067097B3F5EE408AF1EE10FA2DD09FED1E9A53
S3150000068007EE907A88EE897AF8EEE77A77EE877A3F
S3150000069017EE900A06F0BCFB07EE904A88EE097A40
S315000006A0F8EEE77A77EE877AC8E9000117EE900A46
S315000006B006F0AEFB88F80850C8E9040188F81890DF
S315000006C046B107AC04EB860654F8040B06F054FC5E
S315000006D0A642F9D101208CE7002E89D007AC04EBA5
S315000006E0860654F8040B06F047FCA642F9D17FE7CC
S315000006F0064677E744B60000000070422DE9F04F49
S315000007000D46002489B04C4981462A46002000F057
S31500000710EDFC28464949CDE90244CDE90444CDE93A
S31500000720064408F0F9FA002856D002AD2F46DFF845
S3150000073038A1DFF8088108F099FA034622465146A7
S31500000740002047F8043B00F0D1FC00204146264635
S31500000750013408F0E1FA10B1062CECD10526002789
S31500000760DFF80881DFF808A10DE023463A46514636
S31500000770002000F0BBFC204606F0FEFBB74207F166
S31500000780010329D01F4655F8044B4146204608F080
S315000007901FFB0028E9D02046FFF75AFD0028E4D0C9
S315000007A023463A462649002000F0A0FC204625496B
S315000007B008F00EFB834690B121464846FFF77CFDC4
S315000007C0E0B12149002000F091FC204606F0D4FB60
S315000007D0B74207F10103D5D109B0BDE8F08F204635
S315000007E01A4908F0F5FA68B121464846FFF776FE41
S315000007F0D0B15846164900F079FCBCE7154900F01F
S3150000080075FCB8E701901449204608F0E1FA002883
S31500000810B1D021464846FFF7B7FE48B1019A0F49C5
S31500000820104600F063FCA6E70D4900F05FFCA2E766
S315000008300C4900F05BFC9EE748B6000058B6000085
S3150000084070B6000094B600009CB60000D0B600005A
S31500000850D8B60000B8B600000CB7000014B7000008
S31500000860F4B6000030B700005CB600006CB60000BD
S3150000087048B70000064B10B506490446184608F06E
S31500000880D9FA03460022234403F8022C10BD00BF08
S315000008909C040020F8060020064B10B506490446C5
S315000008A0184608F0C7FA03460022234403F8022C30
S315000008B010BD00BF64050020F8060020064B10B5E9
S315000008C006490446184608F0B5FA034600222344B2
S315000008D003F8022C10BD00BFD4030020F806002048
S315000008E070B505460E461148294608F0A3FA0F488A
S315000008F008F0C3FA0D4902460D4802F065FE0446AB
S3150000090060B90C4A1378002BFCD0002330464FF414
S315000009107A71137004F046F8204670BD2A460649DF
S31500000920002000F0E3FB204670BD00BF300600202B
S3150000093048110020D00C00206CB7000000B541F231
S31500000940883183B02248FFF7CBFFC8212148FFF743
S31500000950C7FF0190019B1BB1019803B05DF804FB32
S315000009604FF4C8711C48FFF7BBFF0190019B002B99
S31500000970F2D14FF4C8711948FFF7B2FF0190019BFD
S31500000980002BE9D14FF4FA611548FFF7A9FF019052
S31500000990019B002BE0D14FF4C8711248FFF7A0FF6E
S315000009A00190019B002BD7D14FF4C8710E48FFF779
S315000009B097FF0190019B002BCED14FF416710B4887
S315000009C0FFF78EFF019001980028C6D0C4E700BF4C
S315000009D088B7000094B700009CB70000ACB70000D1
S315000009E0CCB7000004B8000020B800002CB8000006
S315000009F010B5044686B04FF47A71642003F0D2FF36
S31500000A0064211148FFF76CFFC8211048FFF768FF03
S31500000A10204608F032FA162103460D4A684608F0C9
S31500000A20C9F8C8216846FFF75BFF08B106B010BDDC
S31500000A30C8212046FFF754FF0028F7D1C8210548F2
S31500000A40FFF74EFF06B010BD40B8000054B80000D6
S31500000A5060B8000078B800002DE9F0410446D0E9FE
S31500000A6002854068A8EB050797422844154408D834
S31500000A700E463A46A5EB080508F0F2F92A466068E4
S31500000A80F11908F0EDF9BFF35F8FE560BDE8F0817D
S31500000A902DE9F8434FF00009064688461746D0E987
S31500000AA002243369151B9C4203F1FF3125BF03F174
S31500000AB0FF339B180B1B1B1BBD4228BF3D469D42A7
S31500000AC028BF1D46706841462A46204408F0C8F9EA
S31500000AD0B2682C44A24208BF0024A944A8447F1B44
S31500000AE0BFF35F8FF460002FDBD14846BDE8F88383
S31500000AF0F8B5164CA8220021204608F0AFF84FF4AE
S31500000B008066002303211020114A124F124D2161E5
S31500000B106161A261E7612662A3626362E3622266A3
S31500000B206566A0662367E3666367BFF35F8F0B4B5B
S31500000B309C46A3F11000ACEB030213F9011D83429E
S31500000B40A154F8D1BFF35F8FF8BD00BFD00B0020D2
S31500000B5090B80000D0070020C007002050C1000058
S31500000B6038B5214B00EB400403EBC40EDEF82C40F5
S31500000B70013000EB4000012C8C46154603EBC0000B
S31500000B8015D0022C0FD034BBDEF82830DEF8242036
S31500000B9093429CBFDEF820105B18013B9A1A9542DF
S31500000BA01CD9204638BDBDE83840FFF771BFDEF8D6
S31500000BB02830DEF82440A3429CBFDEF820105B18E4
S31500000BC0013B1C1B944228BF144661462246FFF790
S31500000BD043FF204638BD0024204638BD2A466146DC
S31500000BE0FFF73AFF2C46DCE7D00B0020F8B50B4B9D
S31500000BF004461B780D46532B164601D0FFF778FFA7
S31500000C00EFF311874FF0200181F311883246294610
S31500000C102046FFF7A5FF87F31188F8BDD00B00200B
S31500000C2010B50446D0E90132501C984207D8236813
S31500000C3099540246E16863680131C4E902019A42A7
S31500000C4000D010BD21682069FFF7D0FFA368984245
S31500000C5015BF4FF0FF330023E360A36010BD00BF54
S31500000C602DE9F84F91420F46DDE90A941546834671
S31500000C701E4668D30B464FF00108B3FBF5F39D42C1
S31500000C8008F10108F9D9B04538BFB04614F0010A99
S31500000C9002D1B9F1000F3DD1DBF80C30002B29DB76
S31500000CA0012402E005FB04F4013E012EFAD8B7FB4D
S31500000CB0F4F39D4205D805FB04F4B7FBF4F39D421B
S31500000CC0F9D9224E06E0AC42B4FBF5F30CD31C4630
S31500000CD0B7FBF3F3F156584604FB1377FFF7A0FF73
S31500000CE0DBF80C30002BEEDABAF1000F02D0B9F1C6
S31500000CF0000F09D1BDE8F88F20215846FFF790FF75
S31500000D00DBF80C30002BF5DBC14509F1FF39F3D8D0
S31500000D10BDE8F88FA30711D420240CE021465846DD
S31500000D20FFF77EFFDBF80C3009F1FF39002BE1DB22
S31500000D30B9F1000FB2D0C145F0D8ADE7002E0CBF17
S31500000D4030242024F7E74FF001089CE754C1000047
S31500000D502DE9F04F002340249BB00DF1280ACDE980
S31500000D6004A481460C461746CDE90633089006E0F2
S31500000D7004A8FFF755FF079B002BC0F2AE8014F9BD
S31500000D80011B002900F0A1802529F1D10026234668
S31500000D9013F9012BA2F123010D2908D8DFE801F090
S31500000DA080070707070707077C0784070778A2F16C
S31500000DB03001C9B209294FF000050FD805EB8505AA
S31500000DC002EB450593F900201C46A2F13001C9B299
S31500000DD00929A5F1300503F10103EFD92E2A00F008
S31500000DE000814FF0000B94F9001021F004006828F0
S31500000DF01C465DD02529BBD05839CBB2202BBAD89A
S31500000E002029B8D801A353F821F000BFE30E000053
S31500000E10770D0000770D0000770D0000770D0000BC
S31500000E20770D0000770D0000770D0000770D0000AC
S31500000E30770D0000770D0000CF0F0000650F000052
S31500000E40770D0000770D0000770D0000770D00008C
S31500000E50770D0000770D0000770D0000770D00007C
S31500000E60770D0000770D0000770D00002D0F0000B4
S31500000E70770D0000770D0000FF0E0000770D0000D3
S31500000E804B0F0000770D0000770D0000E30E000009
S31500000E901C4646F002067AE71C4646F0040676E74C
S31500000EA01C4646F0080672E71C4646F001066EE749
S31500000EB014F9011B21F00403682B9BD114F9011BC3
S31500000EC021F00403682B95D1F2E7079B002B04DD84
S31500000ED0069C002C40F09E80234418461BB0BDE8BB
S31500000EE0F08F102239685B46081D386009680DEBE3
S31500000EF00200CDE90056FFF7B3FE079B3CE73B68CF
S31500000F00784A191D39601D68002D08BF154615F968
S31500000F10011B00293FF42FAF04A8FFF781FE079BB2
S31500000F20002BF4DA18461BB0BDE8F08F082300202A
S31500000F30102239680D1D3D600968CDE900300DEBC2
S31500000F400200FFF78DFE079B16E739685B46081D12
S31500000F50386009680A22CDE9005604A8FFF780FE2A
S31500000F60079B09E73B684FF00108191D39601B68AC
S31500000F701A46039383EAE373A3EBE273092B09DDB5
S31500000F8059481946A0FB03C3632908F101084FEA33
S31500000F90D303F6DCD84538BFD846002D43D1079990
S31500000FA000250B46002998DB039B002B65DB7307A6
S31500000FB06FD406F00303022B74D05B460A22CDE9F8
S31500000FC00056039904A8FFF74BFE079BD4E63B683F
S31500000FD004A81A1D3A6093F90010FFF721FE079B3B
S31500000FE0CAE694F90110A1F13002D2B2092A55D805
S31500000FF01C464FF0000B0BEB8B0201EB420214F97F
S31500001000011FA2F1300BA1F13003DBB2092BF2D99B
S31500001010631CEAE62246514648460393FFF7E6FD7F
S31500001020039B234459E7039A06F00203002A1ADBBE
S31500001030720718D4002B4CD0BBF1000F10D0F0076C
S315000010400CD50DE0202104A8FFF7EAFD0799013D24
S3150000105000290B46FFF641AF002DA3D0A845F1D3DA
S3150000106007990B469EE7013D13B1BBF1000FF7D080
S31500001070F207F5D4002DF1D191E75B422D2104A8AA
S315000010800393FFF7CDFD079900290B46FFF625AF21
S315000010908FE72B2104A8FFF7C3FDF4E74FF0000B01
S315000010A00133A2E6BBF1000F87D1002D85D045455F
S315000010B016D9302104A8FFF7B3FD0799013D002991
S315000010C00B46FFF60AAF002DF1D10029FFF605AF5A
S315000010D073E7F107C2D5079B002BBFF66EAFFCE6A0
S315000010E00B46F2E79CB80000CDCCCCCC0EB400B5D4
S315000010F082B003AB53F8041B01AA0193FFF728FE45
S3150000110002B05DF804EB03B0704700BF2DE9F04371
S31500001110002283B004468946934840F20D1103F03D
S3150000112059F8002240F203118F4803F053F80723C1
S315000011302C2101228DF807108C480DEB030102F0DB
S3150000114083FF012240F20311874803F043F8072387
S31500001150270A0DEB0301012284488DF8077002F07F
S3150000116073FF0723E4B2012280480DEB03018DF8DB
S31500001170074009F1FF3902F067FFA742C9F38F184C
S315000011807CD0B8F1000F54D0784D102607230122E9
S315000011900DEB030128468DF8077002F055FF072373
S315000011A001220DEB030128468DF8074002F04CFFA3
S315000011B0072301220DEB030128468DF8077002F084
S315000011C043FF072301220DEB030128468DF8074054
S315000011D002F03AFF072301220DEB030128468DF8A2
S315000011E0077002F031FF072301220DEB03012846A9
S315000011F08DF8074002F028FF072301220DEB0301BB
S3150000120028468DF8077002F01FFF072301220DEB19
S31500001210030128468DF8074002F016FF731E13F0EF
S31500001220FF06B3D108F1FF381FFA88F8B8F1000FAE
S31500001230ABD109F03F035D1EEDB2B3B14B4E0723B0
S3150000124001220DEB030130468DF8077002F0FCFE1B
S315000012500723013D012230460DEB0301EDB28DF867
S31500001260074002F0F1FEFF2DE9D1012240F20D11F7
S315000012703D4803B0BDE8F04302F0ACBFB8F1000F43
S3150000128054D03A4D1026072301220DEB03012846C0
S315000012908DF8074002F0D8FE072301220DEB03016B
S315000012A028468DF8074002F0CFFE072301220DEBFA
S315000012B0030128468DF8074002F0C6FE07230122E7
S315000012C00DEB030128468DF8074002F0BDFE07230B
S315000012D001220DEB030128468DF8074002F0B4FE0B
S315000012E0072301220DEB030128468DF8074002F083
S315000012F0ABFE072301220DEB030128468DF80740BC
S3150000130002F0A2FE072301220DEB030128468DF809
S31500001310074002F099FE731E13F0FF06B3D108F1E1
S31500001320FF381FFA88F8B8F1000FABD109F03F0378
S315000013305D1EEDB2002B98D00C4E072301220DEB5B
S31500001340030130468DF8074002F07EFE0723013D7B
S31500001350012230460DEB0301EDB28DF8074002F095
S3150000136073FEFF2DE9D180E7D4100020DC100020A9
S31500001370F0B5244E83B00C460746002240F20D110C
S31500001380304602F027FF002240F20311304602F0F9
S3150000139021FF07231C4D0DEB0301012228468DF882
S315000013A0077002F051FE012240F20311304602F0AE
S315000013B011FF0723210E8DF8071001220DEB030103
S315000013C0284602F041FE0723210C8DF80710012262
S315000013D00DEB0301284602F037FE0723210A8DF89C
S315000013E0071001220DEB0301284602F02DFE07230C
S315000013F0012228460DEB03018DF8074002F024FE7A
S3150000140003B0F0BDD4100020DC10002030B51E4C17
S3150000141083B0002240F20231204602F0DBFE4FF498
S315000014207A71322003F0BEFA012240F202312046E0
S3150000143002F0D0FE002240F20D11204602F0CAFE54
S315000014404FF47A71322003F0ADFA002240F2031114
S31500001450204602F0BFFE002240F20D11204602F0A7
S31500001460B9FE012507232A460DEB030107488DF82F
S31500001470075002F0E9FD2A4640F20D11204603B05E
S31500001480BDE8304002F0A6BED4100020DC100020DB
S315000014902DE9F04FFC4FFD4C83B0FD49384602F074
S315000014A033FCFFF7B3FF002240F20311204602F09F
S315000014B091FE002240F20D112046012502F08AFE1F
S315000014C007232A460DEB030138468DF8075002F034
S315000014D0BBFD002240F20311204602F07BFE0022F3
S315000014E040F20D11204602F075FE0723CB220DEBCC
S315000014F003018DF8072038462A4602F0A5FD2A4644
S3150000150040F20311204602F065FE002240F20D1162
S31500001510204602F05FFE072339220DEB03018DF80A
S31500001520072038462A4602F08FFD2A4640F203116C
S31500001530204602F04FFE002240F20D11204602F036
S3150000154049FE07232C220DEB03018DF807203846B0
S315000015502A4602F079FD2A4640F20311204602F09F
S3150000156039FE002240F20D11204602F033FE072319
S3150000157000260DEB03012A4638468DF8076002F077
S3150000158063FD2A4640F20311204602F023FE32464E
S3150000159040F20D11204602F01DFE34238DF807306F
S315000015A007232A460DEB0301384602F04DFD2A4675
S315000015B040F20311204602F00DFE324640F20D11B4
S315000015C0204602F007FE02238DF8073007232A463D
S315000015D00DEB0301384602F037FD324640F20311A7
S315000015E0204602F0F7FD324640F20D11204602F089
S315000015F0F1FDCF238DF8073007232A460DEB0301B3
S31500001600384602F021FD2A4640F20311204602F038
S31500001610E1FD324640F20D11204602F0DBFD0723C4
S315000016202A460DEB030138468DF8076002F00CFDE3
S315000016302A4640F20311204602F0CCFD324640F223
S315000016400D11204602F0C6FD07234FF0C1080DEB31
S3150000165003012A4638468DF8078002F0F5FC2A4633
S3150000166040F20311204602F0B5FD324640F20D115C
S31500001670204602F0AFFD30238DF8073007232A46B7
S315000016800DEB0301384602F0DFFC324640F203114F
S31500001690204602F09FFD324640F20D11204602F030
S315000016A099FDE8238DF8073007232A460DEB030141
S315000016B0384602F0C9FC2A4640F20311204602F0E1
S315000016C089FD324640F20D11204602F083FD852346
S315000016D08DF8073007232A460DEB0301384602F042
S315000016E0B3FC2A4640F20311204602F073FD32464F
S315000016F040F20D11204602F06DFD07232A460DEB40
S31500001700030138468DF8076002F09EFC2A4640F237
S315000017100311204602F05EFD324640F20D112046CE
S3150000172002F058FD78238DF8073007232A460DEB83
S315000017300301384602F088FC324640F20311204687
S3150000174002F048FD324640F20D11204602F042FDFD
S31500001750EA238DF8073007232A460DEB03013846A6
S3150000176002F072FC2A4640F20311204602F032FDD6
S31500001770324640F20D11204602F02CFD07232A4680
S315000017800DEB030138468DF8076002F05DFC2A4632
S3150000179040F20311204602F01DFD324640F20D11C3
S315000017A0204602F017FD07232A460DEB03013846B3
S315000017B08DF8076002F048FC324640F203112046DD
S315000017C002F008FD324640F20D11204602F002FDFD
S315000017D0ED238DF8073007232A460DEB0301384623
S315000017E002F032FC2A4640F20311204602F0F2FCD7
S315000017F0324640F20D11204602F0ECFC64238DF8CF
S31500001800073007232A460DEB0301384602F01CFC7D
S315000018102A4640F20311204602F0DCFC324640F232
S315000018200D11204602F0D6FC07234FF003090DEBFD
S3150000183003012A4638468DF8079002F005FC2A4631
S3150000184040F20311204602F0C5FC324640F20D116B
S31500001850204602F0BFFC12238DF8073007232A46E4
S315000018600DEB0301384602F0EFFB2A4640F2031166
S31500001870204602F0AFFC324640F20D11204602F03F
S31500001880A9FC812306E000BFDC100020D410002054
S31500001890A00B03008DF8073007232A460DEB030142
S315000018A0384602F0D1FB324640F20311204602F0E0
S315000018B091FC324640F20D11204602F08BFCF723D4
S315000018C08DF8073007232A460DEB0301384602F050
S315000018D0BBFB2A4640F20311204602F07BFC32464F
S315000018E040F20D11204602F075FC20238DF80730DA
S315000018F007232A460DEB0301384602F0A5FB3246C4
S3150000190040F20311204602F065FC324640F20D110A
S31500001910204602F05FFCC0238DF8073007232A46D5
S315000019200DEB0301384602F08FFB2A4640F2031105
S31500001930204602F04FFC324640F20D11204602F0DE
S3150000194049FC23238DF8073007232A460DEB0301B4
S31500001950384602F079FB324640F20311204602F087
S3150000196039FC324640F20D11204602F033FC0723C3
S315000019702A460DEB030138468DF8078002F064FB1A
S315000019802A4640F20311204602F024FC324640F279
S315000019900D11204602F01EFC07234FF010020DEB3E
S315000019A003018DF8072038462A4602F04DFB3246E1
S315000019B040F20311204602F00DFC324640F20D11B2
S315000019C0204602F007FCC5238DF8073007232A4678
S315000019D00DEB0301384602F037FB2A4640F20311AD
S315000019E0204602F0F7FB324640F20D11204602F087
S315000019F0F1FB3E238DF8073007232A460DEB030142
S31500001A00384602F021FB2A4640F20311204602F036
S31500001A10E1FB324640F20D11204602F0DBFB0723C4
S31500001A204FF028080DEB03012A4638468DF807804B
S31500001A3002F00AFB324640F20311204602F0CAFBCE
S31500001A40324640F20D11204602F0C4FBC7238DF842
S31500001A50073007232A460DEB0301384602F0F4FA55
S31500001A602A4640F20311204602F0B4FB324640F209
S31500001A700D11204602F0AEFB86238DF807300723B2
S31500001A802A460DEB0301384602F0DEFA324640F2F2
S31500001A900311204602F09EFB324640F20D1120460D
S31500001AA002F098FB36238DF8073007232A460DEB04
S31500001AB00301384602F0C8FA2A4640F203112046CE
S31500001AC002F088FB324640F20D11204602F082FBFE
S31500001AD007232A460DEB030138468DF8078002F0EE
S31500001AE0B3FA324640F20311204602F073FB324647
S31500001AF040F20D11204602F06DFB3A238DF80730B7
S31500001B0007232A460DEB0301384602F09DFA2A46C2
S31500001B1040F20311204602F05DFB324640F20D1101
S31500001B20204602F057FB55238DF8073007232A4637
S31500001B300DEB0301384602F087FA324640F20311F4
S31500001B40204602F047FB324640F20D11204602F0D5
S31500001B5041FBB1238DF8073007232A460DEB03011D
S31500001B60384602F071FA2A4640F20311204602F086
S31500001B7031FB324640F20D11204602F02BFB0723C3
S31500001B802A460DEB030138468DF8076002F05CFA31
S31500001B902A4640F20311204602F01CFB324640F270
S31500001BA00D11204602F016FB18238DF80730072387
S31500001BB02A460DEB0301384602F046FA324640F259
S31500001BC00311204602F006FB324640F20D11204674
S31500001BD002F000FBB6238DF8073007232A460DEBEB
S31500001BE00301384602F030FA2A4640F20311204635
S31500001BF002F0F0FA324640F20D11204602F0EAFAFF
S31500001C0007234FF008080DEB03012A4638468DF8E6
S31500001C10078002F019FA2A4640F20311204602F024
S31500001C20D9FA324640F20D11204602F0D3FA822349
S31500001C308DF8073007232A460DEB0301384602F0DC
S31500001C4003FA2A4640F20311204602F0C3FA32464E
S31500001C5040F20D11204602F0BDFA27238DF8073019
S31500001C6007232A460DEB0301384602F0EDF932460A
S31500001C7040F20311204602F0ADFA324640F20D1151
S31500001C80204602F0A7FAF2238DF8073007232A46EA
S31500001C900DEB0301384602F0D7F92A4640F203114C
S31500001CA0204602F097FA324640F20D11204602F025
S31500001CB091FA07232A460DEB030138468DF8076093
S31500001CC002F0C2F9324640F20311204602F082FACF
S31500001CD0324640F20D11204602F07CFA26238DF89A
S31500001CE0073007232A460DEB0301384602F0ACF90C
S31500001CF02A4640F20311204602F06CFA324640F2C0
S31500001D000D11204602F066FA07232A460DEB030161
S31500001D1038468DF8075002F097F9324640F2031123
S31500001D20204602F057FA324640F20D11204602F0E4
S31500001D3051FAE0238DF8073007232A460DEB0301FD
S31500001D40384602F081F92A4640F20311204602F095
S31500001D5041FA324640F20D11204602F03BFA0723C3
S31500001D604FF00F0B0DEB03012A4638468DF807B0EE
S31500001D7002F06AF92A4640F20311204602F02AFAD6
S31500001D80324640F20D11204602F024FA07234FF0A6
S31500001D9031020DEB03018DF8072038462A4602F082
S31500001DA053F92A4640F20311204602F013FA32464E
S31500001DB040F20D11204602F00DFA2B238DF8073064
S31500001DC007232A460DEB0301384602F03DF92A4661
S31500001DD040F20311204602F0FDF9324640F20D11A1
S31500001DE0204602F0F7F907234FF00C000DEB030134
S31500001DF02A468DF80700384602F026F92A4640F2B0
S31500001E000311204602F0E6F9324640F20D11204653
S31500001E1002F0E0F907234FF00E0A0DEB03012A4604
S31500001E2038468DF807A002F00FF92A4640F2031152
S31500001E30204602F0CFF9324640F20D11204602F05C
S31500001E40C9F907232A460DEB030138468DF80780AA
S31500001E5002F0FAF82A4640F20311204602F0BAF9D7
S31500001E60324640F20D11204602F0B4F94E238DF8A9
S31500001E70073007232A460DEB0301384602F0E4F843
S31500001E802A4640F20311204602F0A4F9324640F2F7
S31500001E900D11204602F09EF9F1238DF80730072335
S31500001EA02A460DEB0301384602F0CEF82A4640F2E8
S31500001EB00311204602F08EF9324640F20D112046FB
S31500001EC002F088F937238DF8073007234FF007080B
S31500001ED00DEB03012A46384602F0B6F82A4640F2D0
S31500001EE00311204602F076F9324640F20D112046E3
S31500001EF002F070F943462A460DEB080138468DF884
S31500001F00078002F0A1F82A4640F20311204602F0AB
S31500001F1061F9324640F20D11204602F05BF94FF0AE
S31500001F20100143462A468DF8071038460DEB080186
S31500001F3002F08AF82A4640F20311204602F04AF9D6
S31500001F40324640F20D11204602F044F943462A4635
S31500001F500DEB080138468DF8079002F075F82A4611
S31500001F6040F20311204602F035F9324640F20D11D7
S31500001F70204602F02FF943462A460DEB0801384663
S31500001F808DF807A002F060F82A4640F203112046B9
S31500001F9002F020F9324640F20D11204602F01AF9FD
S31500001FA009232A468DF807300DEB080143463846CB
S31500001FB002F04AF82A4640F20311204602F00AF9D6
S31500001FC0324640F20D11204602F004F943462A46F5
S31500001FD00DEB080138468DF8076002F035F83246F9
S31500001FE040F20311204602F0F5F8324640F20D1198
S31500001FF0204602F0EFF8E1232A468DF807300DEB74
S3150000200008014346384602F01FF82A4640F20311FB
S31500002010204602F0DFF8324640F20D11204602F06B
S31500002020D9F843462A460DEB080138468DF8076075
S3150000203002F00AF82A4640F20311204602F0CAF8D6
S31500002040324640F20D11204602F0C4F843462A46B5
S315000020500DEB080138468DF807A001F0F5FF2A467A
S3150000206040F20311204602F0B5F8324640F20D1157
S31500002070204602F0AFF814232A468DF807300DEB00
S3150000208008014346384601F0DFFF2A4640F20311B5
S31500002090204602F09FF8324640F20D11204602F02B
S315000020A099F843462A460DEB080138468DF8079005
S315000020B001F0CAFF2A4611254FF0310940F20311FB
S315000020C0204602F087F8324640F20D11204602F013
S315000020D081F843460DEB0801012238468DF807507A
S315000020E001F0B2FF012240F20311204602F072F81D
S315000020F0324640F20D11204602F06CF843460DEBD5
S315000021000801012238468DF8078001F09DFF012263
S3150000211040F20311204602F05DF8324640F20D11FE
S31500002120204602F057F843460DEB080101223846D7
S315000021308DF8079001F088FF012240F20311204636
S3150000214002F048F8324640F20D11204602F042F8FD
S31500002150C1230DEB08018DF80730012243463846AE
S3150000216001F072FF012240F20311204602F032F81C
S31500002170324640F20D11204602F02CF848230DEBB2
S3150000218008018DF8073001224346384601F05CFF0E
S31500002190012240F20311204602F01CF8324640F2BA
S315000021A00D11204602F016F84FF008030DEB08015A
S315000021B08DF8073001224346384601F045FF0122DB
S315000021C040F20311204602F005F8324640F20D11A6
S315000021D0204601F0FFFF43460DEB08010122384679
S315000021E08DF807B001F030FF012240F203112046BE
S315000021F001F0F0FF324640F20D11204601F0EAFFF1
S315000022004FF00C0043468DF807000DEB0801012244
S31500002210384601F019FF012240F20311204601F071
S31500002220D9FF324640F20D11204601F0D3FF434656
S315000022300DEB0801012238468DF8079001F004FFE6
S31500002240012240F20311204601F0C4FF324640F25B
S315000022500D11204601F0BEFF36230DEB08018DF867
S31500002260073001224346384601F0EEFE012240F2D5
S315000022700311204601F0AEFF324640F20D11204612
S3150000228001F0A8FF43460DEB0801012238468DF800
S3150000229007B001F0D9FE324640F20311204601F0A4
S315000022A099FF324640F20D11204601F093FF434656
S315000022B00DEB0801012238468DF8075001F0C4FEE7
S315000022C0324640F20311204601F084FF324640F2C6
S315000022D00D11204601F07EFF29230DEB08018DF834
S315000022E0073001224346384601F0AEFE012240F295
S315000022F00311204601F06EFF20462C24324640F2A0
S315000023000D1101F067FF0122434638460DEB080127
S315000023108DF8074001F098FE03B0BDE8F08F00BFCE
S3150000232010B5002282B0044640F20311394801F08C
S3150000233051FF002240F20D11364801F04BFF3621C5
S3150000234007238DF8071001220DEB0301324801F037
S315000023507BFE032C20D8DFE804F04E400221012248
S3150000236040F203112B4801F035FF002240F20D1117
S31500002370284801F02FFF8024072301220DEB0301DB
S3150000238025488DF8074001F05FFEF0204FF4A0725B
S315000023902249234B08601A6002B010BD012240F2A8
S315000023A003111C4801F016FF002240F20D111948D6
S315000023B001F010FFB024072301220DEB030116489C
S315000023C08DF8074001F040FE4FF4A070F02213494B
S315000023D0134B08601A6002B010BD012240F20311CF
S315000023E00C4801F0F7FE002240F20D11094801F0F9
S315000023F0F1FE0024DFE7012240F20311054801F057
S31500002400E9FE002240F20D11024801F0E3FE4024ED
S31500002410B2E700BFD4100020DC10002084010020A9
S3150000242080010020F8B504460A4F0B4E3968336820
S315000024302A205D1E0139FEF79BFF29462B20FEF759
S3150000244097FF3B683168A0B203FB01F1BDE8F84095
S31500002450FEF75CBE840100208001002050EA0103E3
S315000024600CD470B5224B0C46196882B0884203D250
S31500002470204B1E68B44202D302B070BD70470139CA
S3150000248041EA00412A201546FEF772FF711E41EA15
S3150000249004412B20FEF76CFF002240F20311164880
S315000024A001F098FE07232C2101228DF8071013480E
S315000024B00DEB030101F0C8FD012240F203110E48A5
S315000024C001F088FE0723290A8DF8071001220DEB7B
S315000024D003010A4801F0B8FD072301220DEB0301B1
S315000024E006488DF8075001F0AFFD02B070BD00BF81
S315000024F08401002080010020D4100020DC10002080
S315000025002DE9F04116461D460F468046069C43EAD5
S3150000251001412A20FEF72CFF44EA06412B20013414
S31500002520FEF726FFA41BE91B01FB04411FFA88F0F6
S31500002530BDE8F041FEF7EABD2DE9F04F89B09DF800
S315000025404C409246013C1E46CDE90401032C13D8AB
S31500002550DFE814F01C019C0197001500DDE901235A
S31500002560934240F05981129B049D13F9018F1293F7
S31500002570B8F1000F40F01B8109B0BDE8F08F129B47
S3150000258093F90050002DF7D0B94BA846B94F059DD9
S315000025900393C6F30729C2F3072B0DF11F04039B10
S315000025A004991A6801F11003934200F206820A4662
S315000025B00F3141EA024104932A20FEF7D9FE05F1C4
S315000025C019012B2041EA0541FEF7D2FE002240F216
S315000025D00311A94801F0FEFD2C23012221468DF8A6
S315000025E01F303846072301F02FFD012240F2031168
S315000025F0A14801F0EFFD34225FFA88F3203B02FB8D
S3150000260003F39E499A1E0A443231CB18029305956C
S3150000261032F8028F0F2501920DE08DF81FB001F000
S3150000262013FD07230122214638468DF81FA001F02D
S315000026300BFD013D18D348FA05F313F0010F4FF0D7
S3150000264001024FF0070321463846E6D18DF81F9068
S3150000265001F0FAFC07230122214638468DF81F6057
S3150000266001F0F2FC013DE6D2DDE901239A42CFD129
S31500002670129B059D13F9018F1293B8F1000F8ED1AD
S315000026807AE7129B93F90070002F3FF475AF784BF1
S31500002690BB46784D059F0393C6F30729C2F3072867
S315000026A00DF11F04039B04991A6801F10B03934271
S315000026B000F288810A460A3141EA024104932A203F
S315000026C0FEF756FE07F111012B2041EA0741FEF7FE
S315000026D04FFE002240F20311674801F07BFD2C23D8
S315000026E0012221468DF81F302846072301F0ACFC55
S315000026F0012240F20311604801F06CFD5FFA8BF392
S31500002700203B03EBC3035E499B009A1E0A44223119
S31500002710CB180293059732F802BF102701920EE0FC
S315000027208DF81F80013F01F08FFC0723012221460F
S3150000273028468DF81FA001F087FC052F19D04BFA0B
S3150000274007F313F0010F4FF001024FF00703214684
S315000027502846E5D18DF81F90013F01F075FC07234F
S315000027600122214628468DF81F6001F06DFC052FD9
S31500002770E5D1DDE901239A42CDD1129B059F13F9DC
S3150000278001BF1293BBF1000F8CD1F5E6129B93F9B2
S315000027900050002D3FF4F0AE354BA846354F049D52
S315000027A00393C6F30729C2F3072B0DF11F04039BFE
S315000027B005F108021B689A4200F2F980691D41EA98
S315000027C0054106352A20FEF7D3FD059B2B20D91D92
S315000027D041EA0341FEF7CCFD002240F203112648F0
S315000027E001F0F8FC2C23012221468DF81F303846D3
S315000027F0072301F029FC012240F203111E4801F0D3
S31500002800E9FC204A20495FFA88F3203B02EB0312D9
S3150000281001EB03130293049532F8028B052501920E
S315000028200EE08DF81FB001F00FFC072301222146B0
S3150000283038468DF81FA001F007FC013DFFF48EAE6F
S3150000284048FA05F313F0010F4FF001024FF00703AA
S3150000285021463846E5D18DF81F9001F0F5FB072398
S315000028600122214638468DF81F6001F0EDFBE4E7B2
S3150000287084010020DC100020D410002064C1000078
S31500002880B0D40000ECED0000FCED00000123504A3E
S315000028901370129B93F90050002D3FF46DAE4D4B13
S315000028A0A8460393039B049D1B6805F110029A42F8
S315000028B0494FC6F30729CAF3072B0DF11F0470D839
S315000028C0E91D41EA05412A20FEF752FD059B2B2012
S315000028D003F10F0141EA0341FEF74AFD002240F2EF
S315000028E003113E4801F076FC2C23012221468DF887
S315000028F01F303846072301F0A7FB012240F20311DF
S31500002900364801F067FC364A36495FFA88F3203BC1
S3150000291002EB431201EB43130293049532F8028B48
S31500002920072501920DE08DF81FB001F08DFB0723FE
S315000029300122214638468DF81FA001F085FB013D96
S3150000294018D348FA05F313F0010F4FF001024FF0C8
S31500002950070321463846E6D18DF81F9001F074FB37
S3150000296007230122214638468DF81F6001F06CFBD3
S31500002970013DE6D2DDE901239A42CFD1144B049DF5
S315000029801B7805EBC305129B13F9018F1293B8F15F
S31500002990000F3FF4F1AD039B05F110021B689A424C
S315000029A08ED9059B012510330F4905938BE7059BAF
S315000029B0072508330D49059304E711230C491A35F9
S315000029C00493F9E50C230B491237049377E600BF0D
S315000029D0780C002084010020DC100020D410002098
S315000029E00CE200002CE200000800010006000100D5
S315000029F0100001000B0001002DE9F04F01EB030967
S31500002A00494583B022D24FF00008531E0193434636
S31500002A100E466FF0404B80469A468718474512D9B6
S31500002A2044460C9B0BEB0A0503EB85052046314615
S31500002A3055F8042F0134FFF711FDA742F6D8019B84
S31500002A405A1C12EB0A0A01364E45E7D303B0BDE81D
S31500002A50F08F00BF704700BF2DE9F04F2D4F2E4D70
S31500002A602E4EDFF8BC80DFF8CCB0DFF8CCA0DFF864
S31500002A70CC9083B013E04FF0000300202B70FEF7DC
S31500002A8035FB3A782B789A4203D0DBF8000003F046
S31500002A90ABF9204604F070FA642003F03FFB514680
S31500002AA00020FEF723FB2B784FF0FF3130683B7098
S31500002AB002F0FAFC484606F0D9F800230446194607
S31500002AC01A46306802F04EFB21461548FDF716FE01
S31500002AD0D8F828301349012BCDD14FF0FF3130689B
S31500002AE02B7002F0E1FCD8E9002398ED047B0E4937
S31500002AF08DED007B0D4806F091F8002330681A46EC
S31500002B00194602F02FFB094A09490020FEF7EEFAA2
S31500002B10B7E700BF790C00207A0C0020D010002007
S31500002B20900C0020D0B80000B8B800007C0C002043
S31500002B30C8B80000F40F0020A4B800001C0D002047
S31500002B40704700BF2DE9F04F444EDFF848B1DFF87B
S31500002B5048A1DFF84891DFF84881414F414D83B0E5
S31500002B601AE0FEF7C3FA4049404800F085FD3B688D
S31500002B703F4A3B495A603F4A28469A6001F042FE66
S31500002B80284601F059FD002330681A46194602F01E
S31500002B90E9FA002003F09CF8772437490020FEF775
S31500002BA0A5FA4FF0FF31306802F07EFCFEF770FCAC
S31500002BB00320FFF7B5FB0020FFF734FC0094EF2459
S31500002BC0EF23732200214FF6FF70FFF799FCF423E1
S31500002BD00022F0214FF6FF700094FFF791FC1421BC
S31500002BE00420022400234FF6FF72CDE900B0084608
S31500002BF0FFF7A2FC00234FF6FF72B9210F20CDE9A3
S31500002C0000A4FFF799FC00234FF6FF72D2210F2094
S31500002C10CDE90094FFF790FC46230A211A46F520D9
S31500002C20CDF80080FFF7E8FE4623144AA021009263
S31500002C30F5201A46FFF7E0FE4623114A5521009279
S31500002C40F5201A46FFF7D8FE0E490F4800F014FD8E
S31500002C500E49002885D000200D4982E7D0100020BB
S31500002C60780C030080110020F80B030018110020D7
S31500002C70058411401C0D0020DCB80000BC8C01004E
S31500002C802C4001002C0C03004811002018B900004C
S31500002C9028B90000F0B80000F8B8000008B9000034
S31500002CA09CF300002DE9804889B03D4CDFF8148183
S31500002CB0DFF814B13B4EDFF814A1DFF814913A4D5A
S31500002CC003AF28E002234FF6FF72B921CDE900B326
S31500002CD00F200023FFF730FC4623344A552100928B
S31500002CE0F5201A46FFF788FE33789BBB0222D221D5
S31500002CF001920F204FF6FF72CDF800A0FFF71CFCE3
S31500002D004623A021F5201A46CDF80090FFF774FE61
S31500002D10002003F089FA29460020FEF7E7F9237818
S31500002D2063BB98F80030002BCCD1022220490F203B
S31500002D30CDE900124FF6FF72B921FFF7FDFB4623DE
S31500002D401C4A55210092F5201A46FFF755FE3378A6
S31500002D50002BCBD002230193174B4FF6FF72009343
S31500002D60D22100230F20FFF7E7FB4623134AA021B9
S31500002D700092F5201A46FFF73FFEC9E74FF0000321
S31500002D8038460F49237006F055F804234FF6FF72B4
S31500002D90CDE90073412100232820FFF7CDFBC0E7D2
S31500002DA0180D0020190D002044B900004CD901006F
S31500002DB06CB90000DC2502009CB900006C720200B0
S31500002DC09C0400207A0C002054B9000084B900004D
S31500002DD0FCBE0200F8B50379022B46D0042B00D0C6
S31500002DE0F8BD244E836832882348541C8354DBB2D2
S31500002DF0A4B20A2B3480F3D1204905F0E9FF28B1AB
S31500002E0001221F4B20461A70FDF734FD1D491A4852
S31500002E1005F0DEFF10B13088FDF73EFD1A49164871
S31500002E2005F0D6FF98B13088FDF748FD4FF0000C4D
S31500002E30164C174D174F0FCD0FC40FCD0FC40FCD26
S31500002E400FC495E80F0084E80F0087F800C00A4A0F
S31500002E5011490020FEF74AF94FF400720021064896
S31500002E6005F0FCFE00233380F8BD01220B4B1A70DF
S31500002E70F8BD00BF2C060020F8060020B4B90000FB
S31500002E80180D0020BCB90000C0B90000D80C002005
S31500002E90900C0020190D0020C8B90000D00C0020AD
S31500002EA0DFF8A4A080B5DAF80000224C03F0BCF9E4
S31500002EB021490020FEF71AF94FF0FF31206802F091
S31500002EC0F3FAFDF73BFD002320681A46194602F087
S31500002ED049F91A4EDFF87480DFF87490184D194FCF
S31500002EE013E098F8003003BB4FF0FF31206802F082
S31500002EF0DBFA3846FDF77CFD002320681A461946A2
S31500002F0002F030F9642003F009F929460020FEF7A3
S31500002F10EDF83378002BE4D1D9F8000002F064FF15
S31500002F20DAF8000002F060FFECE7D9F8000002F0E2
S31500002F305BFFD9E7D0100020CCB90000190D0020A6
S31500002F40DCB900007C0C002064100020180D002065
S31500002F50F40F002080B51C4D1C4CDFF87CA0DFF878
S31500002F607C90DFF87C801A4F1A4E8AB039460020D2
S31500002F70FEF7BCF84FF0FF31286802F095FAFDF72E
S31500002F80DDFCD4E9002394ED047B31468DED007B16
S31500002F9003A805F043FE03A8FDF72AFD00232868D1
S31500002FA01A46194602F0DEF80123D9F800008AF81D
S31500002FB0003002F019FFD8F8000003F035F964205C
S31500002FC003F0ACF8D2E700BFD0100020D80C0020E8
S31500002FD0F0B900000CBA0000190D0020F40F002013
S31500002FE064100020022800D070470249024801F010
S31500002FF0CBB900BF980C0300D410002010B50446CE
S3150000300000F018F92046BDE81040FFF725BD00BFC7
S3150000301030B501240D480E4A03680E4D85B01919C6
S31500003020CDE901250C4B01604FF480720B490C4829
S31500003030009402F0CDFD0B4B186008B105B030BD11
S31500003040014605B0BDE8304000F0F2B8B8160020E1
S3150000305040700020200F00208C0B030024BA0000D3
S31500003060FD2F00001C0F002010B5044600F0E2F80A
S315000030702046BDE81040FFF765BD00BF30B502240D
S315000030800D480E4A03680E4D85B0591CCDE9012541
S315000030900C4B01604FF480720B490C48009402F00F
S315000030A097FD0B4B186008B105B030BD014605B061
S315000030B0BDE8304000F0BCB8B816002040740020CF
S315000030C08C0F0020900B030030BA0000693000001E
S315000030D0880F002010B5044600F0ACF82046BDE885
S315000030E01040FFF7DFBD00BF30B501240D480E4A82
S315000030F003680E4D85B01919CDE901250C4B016009
S315000031004FF480720B490C48009402F061FD0B4BA2
S31500003110186008B105B030BD014605B0BDE83040C5
S3150000312000F086B8B816002040780020F80F00207E
S31500003130940B03003CBA0000D5300000F40F0020C9
S3150000314010B5044600F076F82046BDE81040FFF7BB
S31500003150A7BE00BF30B501250C480D4C036883B0EF
S31500003160591901944FF4806201600A4B0A490B48D1
S31500003170009502F07BFDA84201D103B030BD0021CD
S31500003180206803B0BDE8304000F052B8B816002001
S3150000319060100020980B030044BA00004131000083
S315000031A010B5044600F046F82046BDE81040FFF78B
S315000031B0D1BE00BF30B501240D480E4A03680E4D3E
S315000031C085B01919CDE901250C4B01604FF48072C9
S315000031D00B490C48009402F0FBFC0B4B186008B13D
S315000031E005B030BD014605B0BDE8304000F020B85E
S315000031F0B8160020407C0020681000209C0B0300BD
S3150000320050BA0000A13100006410002008B501206A
S3150000321002F074F8044B186000B108BD0146BDE821
S31500003220084000F005B800BFD0100020FFF7EEBF41
S3150000323000BE704738B5164C4FF0FF31206802F0DB
S3150000324033F9012803D000212068FFF7F1FF114B65
S315000032501A7802B138BD01221A70FFF7E7FF0E4D4A
S315000032602B68013B2B60002BF4D0002320681A4604
S31500003270194601F077FF0128F2D000212068FFF7F8
S31500003280D7FF2B68013B2B60002BEED138BD00BF6A
S31500003290B0160020B4160020B816002038B500235A
S315000032A00F4D104C01214FF480700F4A2B60237094
S315000032B001F01AFF0D4B186068B1FFF7DFFEFFF74C
S315000032C0A7FEFFF747FFFFF775FFFFF70DFF02F0B9
S315000032D0EBFD002038BD0146FFF7AAFFEDE700BF72
S315000032E0B8160020B416002068160020B01600207C
S315000032F0802330B4034D044C05600C60136030BC71
S31500003300704700BF0016002000140020802330B450
S31500003310034D044C05600C60136030BC704700BF61
S31500003320981300209811002000BEFEE71EF0040F3F
S315000033300CBFEFF30880EFF309800149084700004E
S31500003340D13300000F4B1968EFF309821EF0100FFE
S3150000335008BF22ED108A22E9F04FEFF30B8342F803
S31500003360043D0A604FF0100080F31188BFF34F8FC1
S31500003370BFF36F8F02F010FF4FF0000080F311884B
S3150000338000F002B8F4410020074801680A6802CA42
S3150000339081F30B88B2E8F04F1EF0100F08BFB2ECB5
S315000033A0108A82F309887047F441002010B5EFF3C4
S315000033B01184102383F3118802F0DEFE18B14FF05A
S315000033C08052024B5A6084F3118810BD00ED00E074
S315000033D008B5836913F8023C022B02D0032B04D8EC
S315000033E008BDBDE80840FFF7CFBF4FF47E71024B22
S315000033F0024A034801F0CEFA60BA00009C0E0300B0
S3150000340074BA000070B44FF080756FF00204094E74
S31500003410283122F0010240F80C6C40F8045C40F8B8
S31500003420244C40F8203C40F8082C70BC40F8481D5D
S31500003430704700BF2933000008B5EFF31181102350
S3150000344083F311880A4A13680133012B136000D0F5
S3150000345008BD084A084B11605B68C3F30803002BDC
S31500003460F6D040F2A441054B054A064801F092FA0F
S31500003470C0160020BC16002000ED00E09CBA00003B
S31500003480880E030074BA000008B5094A13683BB1F8
S31500003490013B13601BB9074B1B6883F3118808BDFA
S315000034A040F2AD41044B054A054801F073FA00BFEE
S315000034B0C0160020BC160020E4BA0000740E0300FB
S315000034C074BA000080B3194B9A8990B2120409D4D9
S315000034D0BFF34F8F30BFBFF36F8F62B6BFF36F8FEF
S315000034E072B670474AF202514FF0000CB3F8FE2351
S315000034F0A3F8FE1392B242F42542A3F80CC0A3F837
S31500003500FE23BFF34F8F30BFBFF36F8F62B6BFF39B
S315000035106F8F72B6B3F8FE23A3F8FE1392B242F48D
S3150000352025429881A3F8FE23704700BF00E00140C2
S3150000353008B572B602F002FD0120FFF7C3FF62B6BE
S31500003540BDE8084002F002BD0D4B0E4A1B68A2FB07
S3150000355003239B09013BB3F1807F00D370474FF0F3
S31500003560E0224FF0F00C0020072110B4064C536106
S3150000357084F823C0906111615DF8044B704700BF69
S3150000358090180020D34D621000ED00E0F02208B53F
S315000035900B4B83F82220FFF7D7FF0A4A536B43F001
S315000035A04043536362B6BFF36F8FEFF3148C2CF076
S315000035B0040C8CF31488BFF36F8F02DF00BEFDE7A7
S315000035C000ED00E000EF00E070B50D460446016A2C
S315000035D08B7803F07B038B708078E66900F003003C
S315000035E0121A2918C4E90312336903B172B9226A9F
S315000035F0937843F080039370A37803F00303022BC0
S3150000360011D0236A2A78DA70002070BD0138C240D2
S3150000361093B200222261306986680068B668B047B6
S315000036200028E4D0F1E72B88226A43F47E43D38155
S31500003630EAE700BFF0B5846A85B005460F469446B2
S315000036406E46B4B194E80F0086E80F00EB69204699
S315000036501B78A760236084F804C0EB6AE3606B6A9A
S315000036609847AC6A1CB196E80F0084E80F0005B0D5
S31500003670F0BD3446EAE700BF01222DE9F0410B78A0
S315000036800D469A4012F0060F044605D0CA695268E4
S315000036901278110700F113820021012003F580033F
S315000036A003F58C531B02C4E9075321706E69A37896
S315000036B06662AE6960F30103C4E90A16A3706B780B
S315000036C0C54A8B4214BF06460226A37866F3010359
S315000036D0A37095F90B6095F80AC0730906F01F07E9
S315000036E0203300FA07F742F82370BFF34F8FBFF37A
S315000036F06F8FBA4B06F1C00753F827E061F3104EFF
S3150000370043F827E053F82770B54F4FEA0C1C02EB3D
S31500003710060E5FFA8CFC8EF800C347F8264095F932
S31500003720056095F804C04FEA561E06F01F080EF114
S31500003730200E00FA08F842F82E80BFF34F8FBFF331
S315000037406F8F06F1C00E53F82E8061F3104843F8D0
S315000037502E8053F82EE04FEA0C1C02EB060E5FFAA1
S315000037608CFC8EF800C347F8264095F9076095F85B
S3150000377006C04FEA561E06F01F080EF1200E00FA8C
S3150000378008F842F82E80BFF34F8FBFF36F8F06F114
S31500003790C00E53F82E8061F3104843F82E8053F87C
S315000037A02EE04FEA0C1C02EB060E5FFA8CFC8EF83C
S315000037B000C347F8264095F9096095F808C04FEA16
S315000037C0561E06F01F080EF1200E00FA08F842F801
S315000037D02E80BFF34F8FBFF36F8F06F1C00E53F8E5
S315000037E02E8061F3104843F82E8053F82E304FEAAE
S315000037F00C13DBB2324482F8003347F82640EB68FC
S31500003800E3B14FF400215B681A681160EB68216A26
S315000038105E684F1D36685760E7697F782FB9F7787D
S31500003820103160F30517F7705160D3E9011218687B
S31500003830126890470646002840F023812B69EBB1B9
S315000038404FF000615B681A6811602B69216A58683D
S31500003850CE1C00689660E669767836B90127C67888
S315000038600E3167F30516C6709160D3E90112186828
S31500003870126890470646002840F01981EFF3108041
S31500003880012383F310884FF00041564B2E785A6877
S31500003890F14022EA01025A605B6880F31088002337
S315000038A040F21922216A8B70216A0B71216A4B72D0
S315000038B0216A8B72216ACB72216A4B832B7822FA9A
S315000038C003F3DA0702D54022236ADA74062140F2AE
S315000038D01923226A11772A78D340DB0703D54FF4E0
S315000038E07842236A9A82EB786A78A978DB00032A01
S315000038F043EA011300F0C880002A0CBFE222F2223C
S31500003900216ADBB20B70236A9A71EA69137B082B72
S3150000391000F0C980216A5B0003F002034B730020AC
S3150000392053789178DB01490101F02001DBB20B43AA
S31500003930216A0872117802390129216A40F2A880A9
S31500003940DBB2CB715268236A917859705078197836
S3150000395060F301011970D1789974D979127801F060
S31500003960A30102F05C020A43DA710020C4E90300F5
S31500003970C4E90500E269194B92F90510EE6901F1F7
S31500003980C00253F82270357860F3104743F822706E
S3150000399005F0030553F82220BFF35F8F01274A097C
S315000039A0920001F01F0102F1604202F5614207FA3E
S315000039B001F1C2F880111160E26992F90B1001F170
S315000039C0C00253F822C060F3104C43F822C053F8EB
S315000039D02220BFF35F8F07E000E100E000600040B7
S315000039E004170020004008404A09920001F01F0118
S315000039F002F1604207FA01F102F56142C2F8801154
S31500003A001160E26992F9071001F1C00253F822C071
S31500003A1060F3104C43F822C053F82220BFF35F8FA7
S31500003A204A09920001F01F0102F1604207FA01F112
S31500003A3002F56142C2F880111160E26992F909202B
S31500003A4002F1C00153F821C060F3104C43F821C0C5
S31500003A5053F82130BFF35F8F53099B0002F01F021A
S31500003A6003F16043974003F56143C3F880711F601B
S31500003A70236A45F070059D7072890646124B2281B5
S31500003A8063603046BDE8F081F22243F0400337E739
S31500003A90FF2048701278022A08BF43F01003226AFA
S31500003AA0DBB2D37161E70A21236A597337E7EB6802
S31500003AB0002BE6D09A681868136A9847E1E7032650
S31500003AC03046BDE8F08100BF55494353EFF3038309
S31500003AD0103B1F4A5BB203F1C00152F8210020F4EB
S31500003AE0803042F8210052F821201A4A52F8230069
S31500003AF0C3691B6983B1036903B17047026A002178
S31500003B00937803F07F0343F004039370436AC16024
S31500003B10C3B18022FFF78EBD0369026A002BEED087
S31500003B208378C16803F00303022B0CD00B78D370A3
S31500003B308278D0E9031302F003029B1A1144C0E90C
S31500003B400313D9E770470B8843F47E43D381EFE72D
S31500003B50006000400417002010B582B0EFF3038325
S31500003B60103B274A5BB203F1C00152F8210020F452
S31500003B70803042F8210052F82120224A52F8234090
S31500003B80E369DB68002B38D0A369ABB9A278216A58
S31500003B9002F0030002280BBF098A4979C1F3080124
S31500003BA0C9B20191A3B9636A2BB30422204602B0BD
S31500003BB0BDE81040FFF73EBD0021636AC4E9051168
S31500003BC0CBB10122204602B0BDE81040FFF732BD5E
S31500003BD002F0030201A9606905F042F9D4E9052162
S31500003BE0A37803F003031A44C91AC4E9052111B9DD
S31500003BF0636A002BE5D102B010BDA369C6E700BF1A
S31500003C00006000400417002010B5EFF303830E4A4E
S31500003C10103B5CB252F82400026A937803F07B03EF
S31500003C209370436A1BB102220021FFF703FD074A86
S31500003C3004F1C00352F8231021F4803142F8231016
S31500003C4052F8233010BD00BF04170020006000406A
S31500003C5010B5EFF303831A4A103B5CB252F8240006
S31500003C60837803F00303022B036A0CBF198A597980
S31500003C7093F804C00CBFC1F30801C9B21CF0100FC1
S31500003C800CF0380206D093F81CC01CF0010F08BFD8
S31500003C9042F0400293F804C00CF0C70C83F804C04D
S31500003CA0436A0BB1FFF7C6FC064A04F1C00352F89B
S31500003CB0231021F4803142F8231052F8233010BD2E
S31500003CC0041700200060004030B5436A85B0044602
S31500003CD08C4601ADABB193E8070085E80700626842
S31500003CE01846127883F804C01A60A26A9A60236A9A
S31500003CF09847636A1BB195E8070083E8070005B09B
S31500003D0030BD2B46EBE700BF2DE9F04F00270A78C0
S31500003D10416002F5800202F58C52120282608A69C5
S31500003D2003460262CA6983B0C0E909720C6A94F953
S31500003D30022094F80180BA42ACBF384604204A7A81
S31500003D400190887A94F802E0A8BF4FF0FF0E012A8E
S31500003D5012BFBC4602274FF0050C08F003080128E5
S31500003D60CA7A48F0800800F0FE80012A14BF4CF0A1
S31500003D70800C4CF0C00C4A7B002A0CBFEA26E226D7
S31500003D80EFF3108A012282F310884FF0004B91F86E
S31500003D90009078482BFA09FBD0F8049029EA0B0921
S31500003DA0C0F8049040688AF3108800204FF0840A17
S31500003DB04FF478499D685FFA88F8A8709D685FFAA5
S31500003DC08CFC95F804B085F804A09D68A5F81490BD
S31500003DD09D6885F800809D68AF709D684027AE712C
S31500003DE026789C68019D667002269C6884F812E01D
S31500003DF09C68E5719C6884F80DC09C6820729C687C
S31500003E0060729C68A0729C68E0729C6860839C6883
S31500003E10E7749C68584F267791F805C091F90150D0
S31500003E20564E4FEA0C1C564C06EB050E5FFA8CFC00
S31500003E308EF800C347F8253005F1C00C54F82CE085
S31500003E4060F3104E44F82CE054F82CC0BFF35F8F9B
S31500003E504FEA551C4FEA8C0C05F01F050CF1604C1F
S31500003E6002FA05F50CF5614CCCF88051CCF80050FF
S31500003E7091F806C091F902504FEA0C1C06EB050EAC
S31500003E805FFA8CFC8EF800C347F8253005F1C00CAC
S31500003E9054F82CE060F3104E44F82CE054F82CC093
S31500003EA0BFF35F8F4FEA551C4FEA8C0C05F01F05D8
S31500003EB00CF1604C02FA05F50CF5614CCCF880511A
S31500003EC0CCF8005091F807C091F903504FEA0C1C4A
S31500003ED006EB050E5FFA8CFC8EF800C347F825301A
S31500003EE005F1C00C54F82CE060F3104E44F82CE0B9
S31500003EF054F82CC0BFF35F8F4FEA551C4FEA8C0C69
S31500003F0005F01F050CF1604C02FA05F50CF5614C45
S31500003F10CCF88051CCF800500D7A91F904102D019F
S31500003F200E44EDB286F8005347F8213001F1C00582
S31500003F3054F8256060F3104644F8256054F825408F
S31500003F40BFF35F8F01F01F044909890001F1604149
S31500003F50A24001F56141C1F880210A60094A1A6050
S31500003F6003B0BDE8F08F002A7FF405AF4CF0400C9B
S31500003F7001E700BF004008400417002000E100E010
S31500003F80006000405349435303698BB143681A6983
S31500003F9042B1F021826893780B43937043681A69A3
S31500003FA042B170475B69002B14BFF0217021F1E725
S31500003FB0A021EFE75A69002AF3D10269002AF0D05E
S31500003FC0012110B493F901301E4C5A0903F01F0366
S31500003FD0203201FA03F344F82230BFF34F8FBFF3C8
S31500003FE06F8F4369C269934207D2D0E9021222B3A6
S31500003FF0D35CCB704369013343614268517A01292E
S315000040000CD092F90130012203F01F000D495B0923
S31500004010824041F823205DF8044B7047C1690129AD
S31500004020EFD99942EDD9D0E9021242B1D35CCB70F7
S315000040304369426801334361E3E7CA70DAE7CA704D
S31500004040F6E700BF00E100E010B58468A47814F03C
S31500004050300408D1C0E90544C0E90314C261FFF782
S3150000406093FF204610BD082010BD00BFEFF3038369
S31500004070103B164A5BB203F1C00152F8210020F44E
S31500004080803042F8210052F82120114A52F823309C
S315000040905A69D9698A4208D2D3E9020199B18A5C80
S315000040A0C2705A69D96901325A618A4200D0704792
S315000040B01A69002AFBD19A68937803F07B0343F0D0
S315000040C0040393707047C170EBE700BF00600040C7
S315000040D004170020EFF30383103B194A5BB203F188
S315000040E0C00152F8210020F4803042F8210052F835
S315000040F02120144A52F823305969DA69914208D2CC
S31500004100D3E90202D2B1525CC2705969DA6901314F
S3150000411059619969914207D24A1C98689A61407917
S315000041201A695054D3E90612914206D19A689378D7
S3150000413003F03B0343F0040393707047C270E4E757
S31500004140006000400417002010B5EFF303830C4A0B
S31500004150103B5CB252F8240001218268937803F088
S3150000416003039370FFF7B0FD064A04F1C00352F84B
S31500004170231021F4803142F8231052F8233010BD69
S31500004180041700200060004010B5EFF303834FF0E2
S31500004190840C0E4A103B5CB252F82400042182685B
S315000041A0937803F00303937083681A7983F804C045
S315000041B0FFF78AFD064A04F1C00352F8231021F4E2
S315000041C0803142F8231052F8233010BD0417002026
S315000041D0006000400120CBB2984080B202B90004D2
S315000041E00B0A5B0103F1804303F50023986000206E
S315000041F0704700BF2DE9F84F0388DBB182464FF0C8
S31500004200000B4FF00109DFF8D0800024304D4FEA53
S31500004210CB07DAF8043035F8022BD9198988914290
S315000042200AD00134032CF4D1BAF800300BF1010B9B
S315000042305B45EAD8BDE8F88FDB5909FA04F603F0C6
S31500004240B853B3F1807FF6B298F8BB3413D033423B
S3150000425031D1204A04F1200612F81630DB09E0D0ED
S3150000426012F81630012123F08003C82002F8163018
S3150000427000F098FBD5E7334211D0164A04F120012D
S3150000428012F81130DB09CCD112F81130C82043F0F6
S31500004290800302F81130012100F084FBC1E7012000
S315000042A000F04CFC98F8BB340120334388F8BB344B
S315000042B000F014FCE1E7012000F040FC98F8BB3464
S315000042C0012023EA060388F8BB3400F007FCC0E7A8
S315000042D0B00E03000030084000E00140F8B5064685
S315000042E0FFF788FFEFF31082012383F31088234F33
S315000042F03B681BB92249CB704023CB703B68013326
S315000043003B6082F31088338823B300211D4D08E0FB
S315000043101B01134445F82340328801318BB29A427F
S3150000432018D9736853F8314003EBC1029288E00351
S315000043304FEA1223D2B2EBD502EB031055F820E078
S3150000434024F4803C2EF4803E45F820E01B0145F81D
S3150000435020C0DEE7EFF31082012383F310883B6869
S3150000436013B13B68013B3B603B681BB980200449A5
S31500004370CB70C87082F31088F8BD00BF001700200C
S31500004380000D08400008084008B5034B03600846C6
S31500004390FFF7A4FF002008BD54524F50844630B4A6
S315000043A082B0019100921D4990F904201C4D51F8EC
S315000043B02200C03255F822101A4C21F0807145F8BF
S315000043C022109CF9041041F40041E28992B2914214
S315000043D0FBD008222274019A0AB1019A4260009A1F
S315000043E00AB1009A8260C27802F0C001802913D017
S315000043F03F2A98BFC381182200200A4B08491A7425
S315000044009CF90430C03351F8232042F0807241F801
S31500004410232002B030BC70478381ECE70000002007
S315000044200060004000540040062070470620704798
S31500004430034693F904300549C03351F82320002080
S3150000444042F0807241F82320704700BF00600040B0
S31500004450034693F904300549C03351F82320002060
S3150000446022F0807241F82320704700BF00600040B0
S31500004470002290F90400124B53F82030C1E90022C3
S31500004480DA783F2A0CD94FF480728A60DA89D2B280
S31500004490CA60DA7802F0C002802A09D0002070478C
S315000044A04FF480328A60DB8900209BB2CB60704774
S315000044B04FF480320A609B8900209BB24B607047A4
S315000044C000000020062070470620704703460022A1
S315000044D030B593F904C0074C0CF1C00E54F82E10F9
S315000044E0054D21F0807144F82E1045F82C201A60F5
S315000044F0104630BD006000400000002030B5864602
S3150000450090F904301C4DC03355F823201B4C22F083
S31500004510807245F8232090F9042042F40042E38992
S315000045209BB29A42FBD00B46DA789C463F2A05D9C5
S31500004530DA89D2B202EB022292B2DA819CF8022028
S3150000454010333F2AF0D84FF0080C18220B4B0C4DB5
S3150000455083F810C09EF904C0074C45F82C101A7455
S315000045609EF904300020C03354F8232042F08072B4
S3150000457044F8232030BD00BF0060004000540040D6
S3150000458000000020F8B5274A044613780D4643B3C9
S315000045906B6893F90030002B40DB234850F823204A
S315000045A0002A3DD123712D68BDB12B46DA78194614
S315000045B03F2A05D9DA89D2B202EB022292B2DA8117
S315000045C08A7810333F2AF1D808211822174B19741C
S315000045D094F9041040F821501A74154B00202360FA
S315000045E0F8BD01261670EFF3108086F31088114A85
S315000045F0116821F480011160126880F310880A4F57
S3150000460019464FF4C072384604F028FB074B5F6129
S315000046101E736B6893F90030002BBEDA0B20F8BDD1
S315000046200820F8BDC41600200000002000540040F9
S315000046300043544400400840034601229B68002082
S315000046401A7770472DE9F047002643686B4A5C6885
S315000046502378A03342F8236083681E772378658920
S31500004660A03342F8235083685E77CA7891F80280B7
S315000046709646C8F3810CC2F381074FEA8C1C930956
S31500004680CD894CEA873C0EF0C0079B03C2F30112AA
S31500004690802FADB243EA022308D0402F06D0C02FA8
S315000046A000F0A380B24643F400530AE08A8905EB82
S315000046B00545C8F3001625F0FC251FFA82FA43EAE1
S315000046C0063366890EB143F00103C668CEB318F00F
S315000046D0200F5BD1102694F9017094F802E007F1DF
S315000046E060484FEA0E1EDFF818915FFA8EFE08F555
S315000046F0614888F800E3DFF804E149F8270007F18C
S31500004700C0085EF8289029F480394EF828905EF8A3
S3150000471028E0BFF35F8F4FF001084FEA571E4FEABC
S315000047208E0E07F01F070EF1604E0EF5614E08FA69
S3150000473007F7CEF88071CEF8007091F803E00EF01E
S31500004740C007C02F27D04FF0000EF04687681FFA2B
S315000047508CFCC7F8288087689BB2C7F82CE087686E
S31500004760A7F814C087683B824F6883681F60836818
S315000047708968596083689D608368C3F80CA0836864
S3150000478062689A618368DE74BDE8F087C02F14BF43
S315000047901C2610269FE70EF00C07B1F80CE0B1F8C6
S315000047A00E80042F1FFA8EFE1FFA88F908BFF04606
S315000047B08F7818BFB4F8088007F00C0708BF4CF4D0
S315000047C0005C042F82684F6818BF1EFB09F9176248
S315000047D08F68826814BF1FFA89FE4CF0200C08EB24
S315000047E008480EEB0E4E5762B0E78A8905EB054581
S315000047F025F0FC251FFA82FA63E700BF006000403F
S315000048000417002070B500254A68416013780446F5
S3150000481003F1012340339B018360D368C36053696E
S31500004820C0E90453EFF3108E4FF0010C8CF310889F
S3150000483013780A4A163316680CFA03F326EA0303BA
S31500004840136013688EF31088054B83F800C009685F
S31500004850FFF7F8FE034B2846236070BD0040084072
S315000048600052004043414D44064B074993F8260049
S315000048701A6A51F82030C2F302620449D3400B6031
S31500004880704700BF00E00140980300209018002008
S315000048904AF2035001232D492D4A2DE9F043A1F890
S315000048A0FE03A2F80431B2F804319BB2002BFAD110
S315000048B04FF4004401212748274D846004F1987481
S315000048C0C0E9033304F52D44A2F8001104601F4A21
S315000048D0224C456192F826504460146A82F880148E
S315000048E082F8363092F83C30D907FBD542F2117483
S315000048F000231649148582F82A3091F83C309B062D
S31500004900FBD505224FF00109F12500244FF0F00EEA
S315000049104FF4254CDFF83880114F88F81C910F6250
S3150000492081F8262091F826200E4B50F82220086A9E
S315000049300D4EC0F30260C24032601D731C7283F8D4
S315000049400CE0A1F8FEC3BDE8F08300BF00E0014023
S3150000495000C001409803002000C2EB0B00127A0051
S3150000496021120221002000409018002010B50024DA
S31500004970064B012083F8284000F0E0F8044B0120A4
S3150000498083F8BB44BDE8104000F0A8B800300840EA
S3150000499000E0014000BEFEE7A0F101000028FBD1C7
S315000049A0704700BF4FF47A7310B400FB01F1114C4D
S315000049B0114A2468B2FBF4F2A1FB03043CB9B0FB34
S315000049C0F2F0800860B15DF8044BFFF7E5BF920096
S315000049D0B1FBF2F1A1FB03132BB908460028F2D173
S315000049E05DF8044B70474FF0FF3C5DF8044B6046A2
S315000049F0FFF7D2BF9018002000CA9A3B70B500247A
S31500004A000B4B0C4EB3F82021B3F84051ADB2154014
S31500004A1025FA04F3DB0704D556F82430E0B203B1D7
S31500004A20984701340E2CF3D1014BA3F8305170BDD9
S31500004A3000600040C816002030B5032085B000F0A5
S31500004A407DF86FF0FF054FF0FF31204C0023224622
S31500004A504FF0010E1E488564CDE90111039104F162
S31500004A60C00532F8020F590960B104A800EB8101B4
S31500004A7051F80C0C03F01F0C0EFA0CFC20EA0C008B
S31500004A8041F80C0C954203F10103EAD10199114B4F
S31500004A900F4A03201167C3F8801202995167C3F8C1
S31500004AA0841203999167C3F8881200F017F800235F
S31500004AB0094834F8022F03F1C00101330AB140F866
S31500004AC02120A542F5D105B030BD00BFB20D0300CF
S31500004AD00080004000E100E000600040EFF310813C
S31500004AE0012383F31088124B33F8102092B22AB1B7
S31500004AF033F81020013A92B223F8102033F8103020
S31500004B009BB293B910B40B4A0B4CB2F8FE3334F88F
S31500004B1010009BB243F4254323EA0003A2F8FE33B8
S31500004B2081F310885DF8044B704781F31088704755
S31500004B308418002000E00140E40E030030B4EFF3D7
S31500004B401081012383F310880E4A32F810309BB28D
S31500004B506BB90D4C0D4DB4F8FE3335F810C09BB251
S31500004B6043EA0C0343F425439BB2A4F8FE3332F820
S31500004B70103001339BB222F8103081F3108830BC1C
S31500004B80704700BF8418002000E00140E40E0300D7
S31500004B9008B50C4A0346106840B103330A4923F0AE
S31500004BA0030303448B4205D8136008BD0749084632
S31500004BB01160F2E704F036F90C2203461A604FF052
S31500004BC0FF3008BD8C180020406C002040440020B7
S31500004BD000BE704708B500F003F8FEF75FFBFEE77E
S31500004BE04FF4700270B52A4B2A4CC3F88820002077
S31500004BF09C60FEF7F7F9FFF74BFE0120FEF7F2F98E
S31500004C002368A3F5806383F30A882348234A002197
S31500004C10121A04F023F82248224A2349121A04F0F1
S31500004C201FF9224D224B5B1B002B07DD00249E1033
S31500004C3055F8043B01349847A642F9DCFFF714FE09
S31500004C40FFF794FE0320FFF779FF4FF6FF7200246B
S31500004C50184B03201A825A829A82DA821A835A835E
S31500004C60FFF73CFF0320FFF769FF134B03205C604F
S31500004C709C60DC601C61FFF731FF0220FEF7B2F991
S31500004C80FFF7DAFE2046BDE8704000F017B800BF17
S31500004C9000ED00E000000000B80300203C440020C6
S31500004CA08001002098030020AC150300900300202B
S31500004CB094030020000D084000000E40704700BF1E
S31500004CC0F8B5044601F03AF92D490A6872B92D4B38
S31500004CD02D4823F00703C0E900322C480125026065
S31500004CE042F2F872186042605A600D6034B104F006
S31500004CF00700A0F11103A34204D2002401F026F913
S31500004D002046F8BD1034211A0029F6DD204E3568FC
S31500004D108D42F2D31C4B9C461B6803E01A6822B1F5
S31500004D209C4613465A688A42F8D3184A9342E4D0FE
S31500004D301A68001BDCF80040CCF800205A680834DA
S31500004D401044102811D903EB010CCCF8040059606B
S31500004D50DCF804700C4A104612685168B942FAD35E
S31500004D60CCF80020C0F800C05A680021AD1A42F005
S31500004D700042C3E90012356001F0E8F82046F8BDAC
S31500004D8094180020AF180020A018002098180020C2
S31500004D90D001002028B338B550F8043C0446002B57
S31500004DA0A0F1080525DA50F8082CDAB923F00043FB
S31500004DB040F8043C01F0C2F8114B54F8040C1946B3
S31500004DC01B685A688242FAD30E4A44F8083C0D60C2
S31500004DD054F8043C11680B441360BDE8384001F0F8
S31500004DE0B5B8704740F21711074B084A0848FFF755
S31500004DF0D1FD4FF48B71074B044A0548FFF7CAFDF6
S31500004E00A0180020D0010020ACBB0000EC0E03006F
S31500004E106CBB0000F8BA00004FF0FF31002200F131
S31500004E200803C0E90131C0E903330260704700BFDF
S31500004E3000230361704700BF43684B609A688A602D
S31500004E40516099600861036801330360704700BFD1
S31500004E5030B40D686B1C10D000F108031C465B686B
S31500004E601A68AA42FAD94B6099608C606160086141
S31500004E70036830BC01330360704704696368F2E776
S31500004E800369D0E901128A60416851605A6882421A
S31500004E9004BF82685A60002202611A68013A1A60E9
S31500004EA01868704770B51646026C0446856B2AB9B9
S31500004EB0066801354EB31046A56370BD8EB94068CD
S31500004EC003F0CEFF6368216CA2680B4493426360D3
S31500004ED028BF236805F1010528BF6360A56300208C
S31500004EE070BDC06803F0BCFF226CE36851429B1A98
S31500004EF02268E360934202D2A3680B44E360022E69
S31500004F0008D00135A563002070BD806801F07EFBE6
S31500004F10A660D1E7012D38BF0125DFE770B505464C
S31500004F20FEF78AFA95F845305CB2002C14DD05F1DF
S31500004F30240603E0631EDAB25CB26AB16B6A5BB147
S31500004F40304601F033FA0028F4D001F0FBFA631E74
S31500004F50DAB25CB2002AF1D1FF2385F84530FEF7BC
S31500004F6093FAFEF769FA95F844305CB2002C14DD2A
S31500004F7005F1100603E0631EDAB25CB26AB12B6972
S31500004F805BB1304601F012FA0028F4D001F0DAFAEB
S31500004F90631EDAB25CB2002AF1D1FF2385F84430F1
S31500004FA0BDE87040FEF770BA70B5002848D0C56BF2
S31500004FB00446002D3DD0026CA2FB0525002D38D1FC
S31500004FC00E46FEF739FAD4E90F30FF2100FB03F352
S31500004FD02268181A626013440244A563C4E90232C7
S31500004FE084F8441084F84510BEB923691BB9FEF74E
S31500004FF04BFA012070BD04F1100001F0D7F900282A
S31500005000F5D04FF08052124B5A60BFF34F8FBFF36B
S315000050106F8FFEF739FA012070BD04F11000FFF71B
S31500005020FBFE04F12400FFF7F7FEFEF72DFA012040
S3150000503070BD40F26311074B074A0848FFF7AAFC08
S315000050404FF49771064B044A0448FFF7A3FC00BFD0
S3150000505000ED00E010BC0000840F0300DCBB000084
S3150000506008BC000070B582B033B30646E8B10D4601
S315000050701C4692B1C9B148230193019B482B22D10A
S3150000508001212046C4E90F65226084F84610019B81
S31500005090FFF78AFF204602B070BD31B9482301935D
S315000050A0019B482B0FD12246EAE74FF4D071094BFA
S315000050B0094A0A48FFF76EFC40F27711084B064A88
S315000050C00648FFF767FC40F28911064B024A03487F
S315000050D0FFF760FC60BC0000680F0300DCBB00004B
S315000050E034BC000044BC000030B583B0C0B1884277
S315000050F00D4615D314460AB348230193019B482B4A
S3150000510015D1012100232260D063204684F8461081
S315000051102364019AFFF748FF2046A56303B030BD1C
S3150000512040F24731094B0A4A0A48FFF733FC40F27E
S315000051308911094B094A0748FFF72CFC40F2771101
S31500005140074B064A0348FFF725FC00BF6CBC00006E
S31500005150440F0300DCBB000044BC0000680F0300E2
S3150000516034BC00002DE9F04184B00192002800F023
S31500005170AF8004460F461E46002900F08B80022EA3
S3150000518003D1E36B012B40F09C8001F0E1F900288C
S3150000519067D0FEF751F9A26BE36B9A4253D3022E06
S315000051A051D00020DFF8448105460DE0FEF76CF98A
S315000051B02046FFF7B3FE00F0C9FEFEF73DF9A26BED
S315000051C0E36B01209A423ED3019B002B6DD0B0B316
S315000051D0FEF75AF900F0B2FEFEF72EF994F84430C5
S315000051E0FF2B08BF84F8445094F84530FF2B08BFC6
S315000051F084F84550FEF748F902A801A901F05AF9CA
S31500005200002858D1FEF718F9A26BE36B9A42CDD16C
S31500005210FEF73AF9019904F1100001F077F82046FB
S31500005220FFF77CFE00F092FE0028C6D14FF08053B7
S31500005230C8F80430BFF34F8FBFF36F8FBDE702A8E6
S3150000524001F02CF9C4E7324639462046FFF72AFE1C
S31500005250636A83B9A8B9FEF717F9012004B0BDE85F
S31500005260F081019B002B94D040F282311C4B1D4AE9
S315000052701D48FFF78FFB04F1240001F097F8002882
S31500005280E9D04FF08052194B5A60BFF34F8FBFF3EE
S315000052906F8FE0E7036C002B3FF471AF40F27E3175
S315000052A0134B104A1048FFF775FBFEF7EDF8002088
S315000052B004B0BDE8F0812046FFF730FE00F046FE60
S315000052C0F5E740F27F310B4B064A0748FFF762FBD2
S315000052D040F27D31084B034A0348FFF75BFB00BFF2
S315000052E01CBD0000300F0300DCBB000000ED00E039
S315000052F074BC0000CCBC000008BC000038B54820D7
S31500005300FFF7DEFC044688B1002501212060C0E9D4
S315000053100F1580F84650FFF747FE2B462A462946CA
S315000053202046A5602560E560FFF71CFF204638BDD6
S31500005330F0B585B00192002800F0A38004460E4621
S3150000534000296ED001F004F9002857D0FEF774F852
S31500005350A56B002D6FD1019B002B35D002A801F063
S315000053609DF82F46FEF790F800F0E8FDFEF764F88A
S3150000537094F84430FF2B08BF84F8447094F8453005
S31500005380FF2B08BF84F84570FEF77EF801A902A836
S3150000539001F090F8E8B9FEF74FF8A36B33BBFEF7C0
S315000053A073F8019904F1240000F0B0FF2046FFF7DE
S315000053B0B5FD00F0CBFD58B3FEF73EF8A56B002D0A
S315000053C039D1019B002BCDD1FEF75EF8002005B048
S315000053D0F0BD2046FFF7A2FD00F0B8FDFEF72CF861
S315000053E0A36B002BF0D0FEF74FF8E5E7FEF74CF87D
S315000053F02046FFF793FD00F0A9FDDDE7019B002B9A
S31500005400A4D040F2A551224B224A2348FFF7C2FA04
S315000054104FF08052214B5A60BFF34F8FBFF36F8F0F
S31500005420CAE7036C002B8DD04FF4B4611C4B194AAC
S315000054301948FFF7AFFA226C5AB1E168A368114424
S315000054409942E16028BF2168304628BFE16003F039
S3150000545007FD013DA563236923B9FEF715F8012071
S3150000546005B0F0BD04F1100000F0A0FF0028F4D054
S315000054704FF08052094B5A60BFF34F8FBFF36F8FC7
S31500005480EBE740F29C51074B024A0348FFF782FACA
S315000054901CBD0000200F0300DCBB000000ED00E097
S315000054A0FCBD0000F0BD0000F0B585B001910028FC
S315000054B000F0BA80066C0446002E40F0AE8001F083
S315000054C047F80546002855D03546FDF7B5FFA36BCE
S315000054D00027002B41D1019B002B7FD0002D63D0EC
S315000054E0FDF7D2FF00F02AFDFDF7A6FF94F8443041
S315000054F0FF2B08BF84F8447094F84530FF2B08BF93
