S019000070726F6A6563745F776974685F72746F732E73726563D2
S31500000000407000200D4C0000354A0000094C0000ED
S31500000010094C0000094C0000094C0000094C000086
S315000000200000000000000000000000006533000032
S31500000030094C0000000000007D330000E53300009D
S315000000400D410000A540000081410000C1410000B3
S31500000050913B0000053B0000413C0000893C00004C
S31500000060913B0000053B0000413C0000893C00003C
S31500000070000000000000000000000000000000007A
S31500000080000000000000000000000000000000006A
S31500000090000000000000000000000000000000005A
S315000000A0000000000000000000000000000000004A
S315000000B0000000000000000000000000000000003A
S315000000C0000000000000000000000000000000002A
S315000000D0000000000000000000000000000000001A
S315000000E0000000000000000000000000000000000A
S315000000F000000000000000000000000000000000FA
S3150000010000000000000000000000000000000000E9
S3150000011000000000000000000000000000000000D9
S3150000012000000000000000000000000000000000C9
S3150000013000000000000000000000000000000000B9
S3150000014000000000000000000000000000000000A9
S315000001500000000000000000000000000000000099
S315000001600000000000000000000000000000000089
S315000001700000000000000000000000000000000079
S315000001800000000000000000000000000000000069
S315000001900000000000000000000000000000000059
S315000001A00000000000000000000000000000000049
S315000001B00000000000000000000000000000000039
S315000001C00348044B834202D0034B03B118477047E0
S315000001D0AC030020AC03002000000000064B0749DA
S315000001E0C91A891048BF0131491003D0044B0BB11D
S315000001F001481847704700BFAC030020AC0300203D
S315000002000000000010B5064C237843B9FFF7D8FF6D
S31500000210044B13B10448AFF300800123237010BDD3
S31500000220C8030020000000008816030008B5054B2F
S315000002301BB105490548AFF30080BDE80840FFF74C
S31500000240CDBF00BF00000000CC03002088160300CD
S3150000025030B583B0044608F080FE022829D92A2149
S31500000260204608F0B3FD28B3031B002B21DD002533
S31500000270B0F801301022294601A8ADF804308DF8F7
S31500000280065007F093FE94F90130621C2A2B08BF32
S31500000290472108D0294623B1594012F9013F2A2B9C
S315000002A0F9D181F04701401AB0FA80F0400903B055
S315000002B030BD002003B030BD2DE9F0432DED048B99
S315000002C00C46A3B000210746642209A808F036FDB3
S315000002D020467E4908F090FD002800F0F2800024B8
S315000002E07A4E09AD08F032FD03463146002045F846
S315000002F0043B013408F080FD0028F3D10E980C9BD6
S315000003000A9990F90080132207F12C0093F90060F6
S3150000031008F049FD0023532E87F83F3011D04E2EAA
S315000003200FD044B109AD05EB840455F8040B06F073
S3150000033093FEA542F9D1012023B0BDEC048BBDE8A4
S31500000340F0830025DDF82C900222494603A8ADF87B
S315000003500C5005958DF80E50069508F024FD09F110
S315000003600201072205A808F01EFD0A22294603A855
S3150000037007F01CFE08EE100A05A806F061FE51EC17
S31500000380100B06F00DFE9FED529A07EE100AB8EE1E
S31500000390C88AC7EE097ADDF834900322494604A8D4
S315000003A038EE278A04950795089508F0FCFC072285
S315000003B009F1030107A808F0F6FC29460A2204A859
S315000003C007F0F4FD019007A806F03AFEB5EE408A64
S315000003D0F1EE10FA51EC100B63D0DDED017AF8EE78
S315000003E0E78A06F0DDFD07EE100AC7EE097A78EE19
S315000003F0A78AF5EE408AF1EE10FA52D0DFED357A93
S31500000400B4EEE78AF1EE10FA4BD5DFED337AF4EE6F
S31500000410E78AF1EE10FA44D518EE100A06F068FDE8
S315000004203E72C7E9000118EE900A06F061FD87F8F2
S315000004301880C7E90401129806F002FE51EC100B71
S3150000044006F0AEFD07EE900AF5EE407AF1EE10FAF0
S3150000045008BFD7ED077A0A22C7ED077A0021109860
S3150000046007F0A4FD0A22002138620F9807F09EFDCE
S315000004700346002BD4BF002301231198BB6206F06C
S31500000480DFFD51EC100B06F08BFD07EE900AF5EE42
S31500000490407AF1EE10FA08BFD7ED097AC7ED097A6E
S315000004A03FE744B109AD05EB840455F8040B06F0AB
S315000004B0D3FDA542F9D1002023B0BDEC048BBDE8E5
S315000004C0F0830146034604461BE700BF24B700003D
S315000004D0000070420000B442000034432DE9F043AE
S315000004E00C469BB064220021064601A808F026FCB3
S315000004F02046244908F080FC044600283FD0002707
S31500000500DFF880900DF10408204608F026FD451C12
S31500000510284606F099FD21462A4648F8040B08F0BD
S315000005200FFD4946002008F067FC01370446002805
S31500000530EAD1039C204600210A2207F037FD012854
S31500000540D4BF00200120002101AC03AB0FADB06287
S3150000055053F8042F92F9002002B10131AB42F7D1D2
S31500000560316247B101AB03EB870754F8040B06F081
S3150000057073FDBC42F9D101201BB0BDE8F0830746EC
S31500000580D8E700BF24B700002DE9F0432DED048B1A
S315000005900C46A1B064220021804607A808F0CEFBD5
S315000005A02046544908F028FC0446002800F0A080A4
S315000005B00026DFF8409107AF204608F0CEFC451C28
S315000005C0284606F041FD21462A4647F8040B08F066
S315000005D0B7FC4946002008F00FFC01360446002807
S315000005E0EAD1099C94F90050532D07D04E2D05D021
S315000005F0002021B0BDEC048BBDE8F083089B0A22E5
S31500000600D3F8020033F8024B03909B88002101A81F
S31500000610ADF81030ADF8044007F0C8FC00210746DD
S3150000062003A807F0E3FB0A9B0B9CD3F8030094F99D
S315000006300090059098781C888DF80A00B3F807306A
S315000006400A22002102A8F0EE408AADF80840ADF873
S31500000650183007F0ABFC0021044605A807F0C6FBDE
S31500000660B0EE408AC4B3B5EE400AF1EE10FA33D0CC
S3150000067097B3F5EE408AF1EE10FA2DD09FED1E9A53
S3150000068007EE907A88EE897AF8EEE77A77EE877A3F
S3150000069017EE900A06F02CFC07EE904A88EE097ACF
S315000006A0F8EEE77A77EE877AC8E9000117EE900A46
S315000006B006F01EFC88F80850C8E9040188F818906E
S315000006C046B107AC04EB860654F8040B06F0C4FCEE
S315000006D0A642F9D101208CE7002E89D007AC04EBA5
S315000006E0860654F8040B06F0B7FCA642F9D17FE75C
S315000006F0064677E724B70000000070422DE9F04F68
S315000007000D46002489B04C4981462A46002000F057
S31500000710E3FC28464949CDE90244CDE90444CDE944
S31500000720064408F069FB002856D002AD2F46DFF8D4
S3150000073038A1DFF8088108F009FB03462246514636
S31500000740002047F8043B00F0C7FC0020414626463F
S31500000750013408F051FB10B1062CECD10526002718
S31500000760DFF80881DFF808A10DE023463A46514636
S31500000770002000F0B1FC204606F06EFCB74207F1FF
S31500000780010329D01F4655F8044B4146204608F080
S315000007908FFB0028E9D02046FFF75AFD0028E4D059
S315000007A023463A462649002000F096FC2046254975
S315000007B008F07EFB834690B121464846FFF77CFD54
S315000007C0E0B12149002000F087FC204606F044FCF9
S315000007D0B74207F10103D5D109B0BDE8F08F204635
S315000007E01A4908F065FB68B121464846FFF776FED0
S315000007F0D0B15846164900F06FFCBCE7154900F029
S315000008006BFCB8E701901449204608F051FB00281C
S31500000810B1D021464846FFF7B7FE48B1019A0F49C5
S31500000820104600F059FCA6E70D4900F055FCA2E77A
S315000008300C4900F051FC9EE728B7000038B70000CD
S3150000084050B7000074B700007CB70000B0B70000D6
S31500000850B8B7000098B70000ECB70000F4B7000086
S31500000860D4B7000010B800003CB700004CB7000039
S3150000087028B80000064B10B506490446184608F08D
S3150000088049FB03460022234403F8022C10BD00BF97
S31500000890AC04002008070020064B10B506490446A4
S315000008A0184608F037FB03460022234403F8022CBF
S315000008B010BD00BF7405002008070020064B10B5C8
S315000008C006490446184608F025FB03460022234441
S315000008D003F8022C10BD00BFE40300200807002027
S315000008E070B505460E461148294608F013FB0F4819
S315000008F008F033FB0D4902460D4802F081FE04461E
S3150000090060B90C4A1378002BFCD0002330464FF414
S315000009107A71137004F062F8204670BD2A460649C3
S31500000920002000F0D9FB204670BD00BF4006002025
S3150000093048110020D00C00204CB8000000B54FF440
S31500000940FA5183B01E48FFF7CBFF4FF4C8711D481C
S31500000950FFF7C6FF0190019B1BB1019803B05DF83C
S3150000096004FB4FF4C8711848FFF7BAFF0190019BCA
S31500000970002BF2D14FF4FA611448FFF7B1FF019052
S31500000980019B002BE9D14FF4C8711148FFF7A8FF6E
S315000009900190019B002BE0D14FF4C8710D48FFF781
S315000009A09FFF0190019B002BD7D14FF4C8710A48D5
S315000009B0FFF796FF019001980028CFD0CDE700BF42
S315000009C068B8000074B8000084B80000A4B800003D
S315000009D0DCB80000F8B8000004B9000010B5044601
S315000009E086B04FF47A71642003F0F8FFC8211148ED
S315000009F0FFF776FFC8211048FFF772FF204608F080
S31500000A00ACFA162103460D4A684608F043F9C82198
S31500000A106846FFF765FF08B106B010BDC82120463D
S31500000A20FFF75EFF0028F7D1C8210548FFF758FFFA
S31500000A3006B010BD18B900002CB9000038B9000086
S31500000A4050B900002DE9F0410446D0E9028540681E
S31500000A50A8EB050797422844154408D80E463A469F
S31500000A60A5EB080508F06CFA2A466068F11908F04B
S31500000A7067FABFF35F8FE560BDE8F0812DE9F843C3
S31500000A804FF00009064688461746D0E90224336926
S31500000A90151B9C4203F1FF3125BF03F1FF339B1861
S31500000AA00B1B1B1BBD4228BF3D469D4228BF1D4652
S31500000AB0706841462A46204408F042FAB2682C443F
S31500000AC0A24208BF0024A944A8447F1BBFF35F8F3E
S31500000AD0F460002FDBD14846BDE8F883F8B5164C24
S31500000AE0A8220021204608F029F94FF48066002349
S31500000AF003211020114A124F124D21616161A2613A
S31500000B00E7612662A3626362E36222666566A066A7
S31500000B102367E3666367BFF35F8F0B4B9C46A3F1C6
S31500000B201000ACEB030213F9011D8342A154F8D166
S31500000B30BFF35F8FF8BD00BFE00B002068B900006F
S31500000B40E0070020D007002048C2000038B5214B3E
S31500000B5000EB400403EBC40EDEF82C40013000EB42
S31500000B604000012C8C46154603EBC00015D0022C24
S31500000B700FD034BBDEF82830DEF8242093429CBF29
S31500000B80DEF820105B18013B9A1A95421CD92046C4
S31500000B9038BDBDE83840FFF771BFDEF82830DEF813
S31500000BA02440A3429CBFDEF820105B18013B1C1BAF
S31500000BB0944228BF144661462246FFF743FF20466B
S31500000BC038BD0024204638BD2A466146FFF73AFF65
S31500000BD02C46DCE7E00B0020F8B50B4B04461B78EF
S31500000BE00D46532B164601D0FFF778FFEFF311871A
S31500000BF04FF0200181F31188324629462046FFF73F
S31500000C00A5FF87F31188F8BDE00B002010B5044658
S31500000C10D0E90132501C984207D8236899540246FD
S31500000C20E16863680131C4E902019A4200D010BD4F
S31500000C3021682069FFF7D0FFA368984215BF4FF0DF
S31500000C40FF330023E360A36010BD00BF2DE9F84F1A
S31500000C5091420F46DDE90A94154683461E4668D33F
S31500000C600B464FF00108B3FBF5F39D4208F101086E
S31500000C70F9D9B04538BFB04614F0010A02D1B9F12E
S31500000C80000F3DD1DBF80C30002B29DB012402E0FC
S31500000C9005FB04F4013E012EFAD8B7FBF4F39D429E
S31500000CA005D805FB04F4B7FBF4F39D42F9D9224EAF
S31500000CB006E0AC42B4FBF5F30CD31C46B7FBF3F3EA
S31500000CC0F156584604FB1377FFF7A0FFDBF80C300C
S31500000CD0002BEEDABAF1000F02D0B9F1000F09D1FC
S31500000CE0BDE8F88F20215846FFF790FFDBF80C305F
S31500000CF0002BF5DBC14509F1FF39F3D8BDE8F88FC4
S31500000D00A30711D420240CE021465846FFF77EFFA6
S31500000D10DBF80C3009F1FF39002BE1DBB9F1000FEC
S31500000D20B2D0C145F0D8ADE7002E0CBF3024202448
S31500000D30F7E74FF001089CE74CC200002DE9F04FA1
S31500000D40002340249BB00DF1280ACDE904A4814676
S31500000D500C461746CDE90633089006E004A8FFF7CF
S31500000D6055FF079B002BC0F2AE8014F9011B00292A
S31500000D7000F0A1802529F1D10026234613F9012B85
S31500000D80A2F123010D2908D8DFE801F08007070743
S31500000D90070707077C0784070778A2F13001C9B265
S31500000DA009294FF000050FD805EB850502EB45052F
S31500000DB093F900201C46A2F13001C9B20929A5F118
S31500000DC0300503F10103EFD92E2A00F000814FF020
S31500000DD0000B94F9001021F0040068281C465DD031
S31500000DE02529BBD05839CBB2202BBAD82029B8D860
S31500000DF001A353F821F000BFCF0E0000630D0000E1
S31500000E00630D0000630D0000630D0000630D00001C
S31500000E10630D0000630D0000630D0000630D00000C
S31500000E20630D0000BB0F0000510F0000630D0000B2
S31500000E30630D0000630D0000630D0000630D0000EC
S31500000E40630D0000630D0000630D0000630D0000DC
S31500000E50630D0000630D0000190F0000630D000014
S31500000E60630D0000EB0E0000630D0000370F00005D
S31500000E70630D0000630D0000CF0E00001C4646F017
S31500000E8002067AE71C4646F0040676E71C4646F05C
S31500000E90080672E71C4646F001066EE714F9011BC8
S31500000EA021F00403682B9BD114F9011B21F00403E4
S31500000EB0682B95D1F2E7079B002B04DD069C002CDE
S31500000EC040F09E80234418461BB0BDE8F08F1022E8
S31500000ED039685B46081D386009680DEB0200CDE9EC
S31500000EE00056FFF7B3FE079B3CE73B68784A191D9F
S31500000EF039601D68002D08BF154615F9011B00292C
S31500000F003FF42FAF04A8FFF781FE079B002BF4DA0E
S31500000F1018461BB0BDE8F08F082300201022396860
S31500000F200D1D3D600968CDE900300DEB0200FFF7AD
S31500000F308DFE079B16E739685B46081D3860096811
S31500000F400A22CDE9005604A8FFF780FE079B09E7B1
S31500000F503B684FF00108191D39601B681A46039358
S31500000F6083EAE373A3EBE273092B09DD59481946BB
S31500000F70A0FB03C3632908F101084FEAD303F6DC9B
S31500000F80D84538BFD846002D43D1079900250B46D2
S31500000F90002998DB039B002B65DB73076FD406F0F3
S31500000FA00303022B74D05B460A22CDE9005603994F
S31500000FB004A8FFF74BFE079BD4E63B6804A81A1D5E
S31500000FC03A6093F90010FFF721FE079BCAE694F9F1
S31500000FD00110A1F13002D2B2092A55D81C464FF0B1
S31500000FE0000B0BEB8B0201EB420214F9011FA2F17D
S31500000FF0300BA1F13003DBB2092BF2D9631CEAE610
S315000010002246514648460393FFF7E6FD039B2344D9
S3150000101059E7039A06F00203002A1ADB720718D46E
S31500001020002B4CD0BBF1000F10D0F0070CD50DE013
S31500001030202104A8FFF7EAFD0799013D00290B4688
S31500001040FFF641AF002DA3D0A845F1D307990B4673
S315000010509EE7013D13B1BBF1000FF7D0F207F5D4BF
S31500001060002DF1D191E75B422D2104A80393FFF7F0
S31500001070CDFD079900290B46FFF625AF8FE72B21FB
S3150000108004A8FFF7C3FDF4E74FF0000B0133A2E617
S31500001090BBF1000F87D1002D85D0454516D93021EB
S315000010A004A8FFF7B3FD0799013D00290B46FFF69B
S315000010B00AAF002DF1D10029FFF605AF73E7F1075E
S315000010C0C2D5079B002BBFF66EAFFCE60B46F2E7D8
S315000010D074B90000CDCCCCCC0EB400B582B003AB55
S315000010E053F8041B01AA0193FFF728FE02B05DF82E
S315000010F004EB03B0704700BF2DE9F043002283B034
S3150000110004468946934840F20D1103F07FF8002209
S3150000111040F203118F4803F079F807232C210122AE
S315000011208DF807108C480DEB030102F0A9FF012290
S3150000113040F20311874803F069F80723270A0DEBED
S315000011400301012284488DF8077002F099FF0723F6
S31500001150E4B2012280480DEB03018DF8074009F146
S31500001160FF3902F08DFFA742C9F38F187CD0B8F182
S31500001170000F54D0784D1026072301220DEB0301F2
S3150000118028468DF8077002F07BFF072301220DEB3E
S31500001190030128468DF8074002F072FF072301225B
S315000011A00DEB030128468DF8077002F069FF07234F
S315000011B001220DEB030128468DF8074002F060FF7F
S315000011C0072301220DEB030128468DF8077002F074
S315000011D057FF072301220DEB030128468DF8074030
S315000011E002F04EFF072301220DEB030128468DF87E
S315000011F0077002F045FF072301220DEB0301284685
S315000012008DF8074002F03CFF731E13F0FF06B3D1C2
S3150000121008F1FF381FFA88F8B8F1000FABD109F0D2
S315000012203F035D1EEDB2B3B14B4E072301220DEB1A
S31500001230030130468DF8077002F022FF0723013DB7
S31500001240012230460DEB0301EDB28DF8074002F0A6
S3150000125017FFFF2DE9D1012240F20D113D4803B0E1
S31500001260BDE8F04302F0D2BFB8F1000F54D03A4DBA
S315000012701026072301220DEB030128468DF80740AF
S3150000128002F0FEFE072301220DEB030128468DF82E
S31500001290074002F0F5FE072301220DEB0301284665
S315000012A08DF8074002F0ECFE072301220DEB030147
S315000012B028468DF8074002F0E3FE072301220DEBD6
S315000012C0030128468DF8074002F0DAFE07230122C3
S315000012D00DEB030128468DF8074002F0D1FE0723E7
S315000012E001220DEB030128468DF8074002F0C8FEE7
S315000012F0072301220DEB030128468DF8074002F073
S31500001300BFFE731E13F0FF06B3D108F1FF381FFAB4
S3150000131088F8B8F1000FABD109F03F035D1EEDB2BE
S31500001320002B98D00C4E072301220DEB030130460B
S315000013308DF8074002F0A4FE0723013D0122304646
S315000013400DEB0301EDB28DF8074002F099FEFF2D7B
S31500001350E9D180E7D4100020DC100020F0B5244E3F
S3150000136083B00C460746002240F20D11304602F0CB
S315000013704DFF002240F20311304602F047FF0723DB
S315000013801C4D0DEB0301012228468DF8077002F073
S3150000139077FE012240F20311304602F037FF0723A1
S315000013A0210E8DF8071001220DEB0301284602F0ED
S315000013B067FE0723210C8DF8071001220DEB0301B0
S315000013C0284602F05DFE0723210A8DF80710012248
S315000013D00DEB0301284602F053FE0723012228469F
S315000013E00DEB03018DF8074002F04AFE03B0F0BD95
S315000013F0D4100020DC10002030B51E4C83B0002233
S3150000140040F20231204602F001FF4FF47A71322099
S3150000141003F0E4FA012240F20231204602F0F6FE21
S31500001420002240F20D11204602F0F0FE4FF47A71D0
S31500001430322003F0D3FA002240F20311204602F0D4
S31500001440E5FE002240F20D11204602F0DFFE0125E6
S3150000145007232A460DEB030107488DF8075002F0D3
S315000014600FFE2A4640F20D11204603B0BDE830407B
S3150000147002F0CCBED4100020DC1000202DE9F04F85
S31500001480DD4983B0DD4802F05BFC002800F052879E
S315000014900020DB49FFF720FEFFF7AEFF002240F2F7
S315000014A00311D84802F0B2FE002240F20D11D548D1
S315000014B0012402F0ABFE072322460DEB0301CF48C1
S315000014C08DF8074002F0DCFD002240F20311CD4802
S315000014D002F09CFE002240F20D11CA4802F096FE70
S315000014E00723CB2122468DF80710C4480DEB0301D4
S315000014F002F0C6FD224640F20311C24802F086FE03
S31500001500002240F20D11BF4802F080FE0723392168
S3150000151022468DF80710B9480DEB030102F0B0FD25
S31500001520224640F20311B74802F070FE002240F254
S315000015300D11B44802F06AFE07234FF02C01224633
S315000015408DF80710AD480DEB030102F099FD224618
S3150000155040F20311AB4802F059FE002240F20D1191
S31500001560A84802F053FE072300250DEB030122468F
S31500001570A2488DF8075002F083FD224640F203117F
S31500001580A04802F043FE2A4640F20D119D4802F0A3
S315000015903DFE072334220DEB03018DF80720974803
S315000015A0224602F06DFD224640F20311954802F0F4
S315000015B02DFE2A4640F20D11924802F027FE07231F
S315000015C002220DEB03018DF807208C48224602F01B
S315000015D057FD2A4640F203118A4802F017FE2A46B2
S315000015E040F20D11874802F011FE0723CF220DEBC2
S315000015F003018DF807208148224602F041FD22466C
S3150000160040F203117F4802F001FE2A4640F20D1116
S315000016107C4802F0FBFD072322460DEB03017748C9
S315000016208DF8075002F02CFD224640F20311754852
S3150000163002F0ECFD2A4640F20D11724802F0E6FD7A
S3150000164007234FF0C1080DEB030122466B488DF8C6
S31500001650078002F015FD224640F20311694802F0A8
S31500001660D5FD2A4640F20D11664802F0CFFD302323
S315000016708DF80730072322460DEB03015F4802F081
S31500001680FFFC2A4640F203115E4802F0BFFD2A46DF
S3150000169040F20D115B4802F0B9FDE8238DF80730E2
S315000016A0072322460DEB0301544802F0E9FC2246CB
S315000016B040F20311534802F0A9FD2A4640F20D11EB
S315000016C0504802F0A3FD85238DF8073007232246F4
S315000016D00DEB0301494802F0D3FC224640F2031108
S315000016E0484802F093FD2A4640F20D11454802F0A3
S315000016F08DFD072322460DEB030140488DF8075068
S3150000170002F0BEFC224640F203113E4802F07EFD86
S315000017102A4640F20D113B4802F078FD78238DF8F9
S315000017200730072322460DEB0301344802F0A8FCDC
S315000017302A4640F20311334802F068FD2A4640F279
S315000017400D11304802F062FDEA238DF807300723B9
S3150000175022460DEB0301294802F092FC224640F294
S315000017600311284802F052FD2A4640F20D11254881
S3150000177002F04CFD072322460DEB03011F488DF8AE
S31500001780075002F07DFC224640F203111D4802F08C
S315000017903DFD2A4640F20D111A4802F037FD072397
S315000017A022460DEB030115488DF8075002F068FC40
S315000017B02A4640F20311134802F028FD2A4640F259
S315000017C00D11104802F022FDED238DF80730072396
S315000017D022460DEB0301094802F052FC224640F274
S315000017E00311084802F012FD2A4640F20D11054881
S315000017F002F00CFD642307E0980C0300DC100020C7
S315000018007CB90000D41000208DF80730072322464B
S315000018100DEB0301DF4802F033FC224640F20311D0
S31500001820DD4802F0F3FC2A4640F20D11DA4802F0D8
S31500001830EDFC07234FF003090DEB03012246D548C3
S315000018408DF8079002F01CFC224640F20311D248A4
S3150000185002F0DCFC2A4640F20D11CF4802F0D6FC1D
S3150000186012238DF80730072322460DEB0301C948E2
S3150000187002F006FC224640F20311C74802F0C6FCFD
S315000018802A4640F20D11C44802F0C0FC81238DF8AF
S315000018900730072322460DEB0301BE4802F0F0FB9A
S315000018A02A4640F20311BC4802F0B0FC2A4640F238
S315000018B00D11B94802F0AAFCF7238DF8073007236B
S315000018C022460DEB0301B34802F0DAFB224640F252
S315000018D00311B14802F09AFC2A4640F20D11AE48B7
S315000018E002F094FC20238DF80730072322460DEBE7
S315000018F00301A84802F0C4FB2A4640F20311A64899
S3150000190002F084FC2A4640F20D11A34802F07EFC48
S31500001910C0238DF80730072322460DEB03019D48AF
S3150000192002F0AEFB224640F203119B4802F06EFC29
S315000019302A4640F20D11984802F068FC23238DF8E0
S315000019400730072322460DEB0301924802F098FB6D
S315000019502A4640F20311904802F058FC2A4640F20B
S315000019600D118D4802F052FC072322460DEB0301B0
S3150000197088488DF8078002F083FB224640F2031167
S31500001980854802F043FC2A4640F20D11824802F0D7
S315000019903DFC07234FF010020DEB03018DF80720E5
S315000019A07C48224602F06CFB2A4640F203117A4834
S315000019B002F02CFC2A4640F20D11774802F026FC74
S315000019C0C5238DF80730072322460DEB0301714826
S315000019D002F056FB224640F203116F4802F016FC55
S315000019E02A4640F20D116C4802F010FC3E238DF899
S315000019F00730072322460DEB0301664802F040FB41
S31500001A00224640F20311644802F000FC2A4640F2E6
S31500001A100D11614802F0FAFB072328260DEB03019E
S31500001A2022465C488DF8076002F02AFB2A4640F2FF
S31500001A300311594802F0EAFB2A4640F20D115648B6
S31500001A4002F0E4FBC7238DF80730072322460DEB8F
S31500001A500301504802F014FB224640F203114E489F
S31500001A6002F0D4FB2A4640F20D114B4802F0CEFBA1
S31500001A7086238DF80730072322460DEB03014548E0
S31500001A8002F0FEFA2A4640F20311434802F0BEFB7A
S31500001A902A4640F20D11404802F0B8FB07234FF0EA
S31500001AA036070DEB030122463A488DF8077002F01F
S31500001AB0E7FA224640F20311374802F0A7FB2A460E
S31500001AC040F20D11344802F0A1FB072322460DEB2C
S31500001AD0030130488DF8076002F0D2FA2A4640F238
S31500001AE003112D4802F092FB2A4640F20D112A48B6
S31500001AF002F08CFB3A238DF80730072322460DEBC4
S31500001B000301244802F0BCFA224640F2031122489F
S31500001B1002F07CFB2A4640F20D111F4802F076FBCC
S31500001B2055238DF80730072322460DEB030119488C
S31500001B3002F0A6FA2A4640F20311174802F066FBA5
S31500001B402A4640F20D11144802F060FBB1238DF8CD
S31500001B500730072322460DEB03010E4802F090FAE8
S31500001B60224640F203110C4802F050FB2A4640F28E
S31500001B700D11094802F04AFB072322460DEB03012B
S31500001B8004488DF8075002F07BFA224640F2031112
S31500001B9004E000BFDC100020D4100020DF4802F073
S31500001BA035FB2A4640F20D11DC4802F02FFB1823C4
S31500001BB08DF80730072322460DEB0301D84802F0C3
S31500001BC05FFA2A4640F20311D44802F01FFB2A4668
S31500001BD040F20D11D14802F019FBB6238DF80730FB
S31500001BE0072322460DEB0301CD4802F049FA2246AF
S31500001BF040F20311C94802F009FB2A4640F20D11D2
S31500001C00C64802F003FB07234FF008060DEB03015D
S31500001C102246C3488DF8076002F032FA224640F2A7
S31500001C200311BE4802F0F2FA2A4640F20D11BB48F3
S31500001C3002F0ECFA82238DF80730072322460DEBDB
S31500001C400301B74802F01CFA224640F20311B348DA
S31500001C5002F0DCFA2A4640F20D11B04802F0D6FA3C
S31500001C6027238DF80730072322460DEB0301AC48E6
S31500001C7002F006FA2A4640F20311A84802F0C6FA14
S31500001C802A4640F20D11A54802F0C0FAF2238DF85B
S31500001C900730072322460DEB0301A14802F0F0F9B5
S31500001CA0224640F203119D4802F0B0FA2A4640F25D
S31500001CB00D119A4802F0AAFA072322460DEB0301FA
S31500001CC097488DF8075002F0DBF92A4640F20311D7
S31500001CD0924802F09BFA2A4640F20D118F4802F014
S31500001CE095FA26238DF80730072322460DEB0301CC
S31500001CF08B4802F0C5F9224640F20311874802F0EC
S31500001D0085FA2A4640F20D11844802F07FFA07232D
S31500001D1022460DEB030182488DF8074002F0B0F928
S31500001D202A4640F203117D4802F070FA2A4640F234
S31500001D300D117A4802F06AFAE0238DF8073007237E
S31500001D4022460DEB0301764802F09AF9224640F24C
S31500001D500311724802F05AFA2A4640F20D116F48F2
S31500001D6002F054FA07234FF00F0B0DEB0301224646
S31500001D706B488DF807B002F083F9224640F2031152
S31500001D80664802F043FA2A4640F20D11634802F013
S31500001D903DFA072331270DEB0301224660488DF8F3
S31500001DA0077002F06DF9224640F203115B4802F01B
S31500001DB02DFA2A4640F20D11584802F027FA2B2335
S31500001DC08DF80730072322460DEB0301544802F035
S31500001DD057F9224640F20311504802F017FA2A46F4
S31500001DE040F20D114D4802F011FA07234FF00C0C8A
S31500001DF00DEB030122464A488DF807C002F040F970
S31500001E00224640F20311454802F000FA2A4640F203
S31500001E100D11424802F0FAF907234FF00E0A0DEBB6
S31500001E20030122463E488DF807A002F029F9224612
S31500001E3040F20311394802F0E9F92A4640F20D1141
S31500001E40364802F0E3F9072322460DEB0301344836
S31500001E508DF8076002F014F9224640F203112F486C
S31500001E6002F0D4F92A4640F20D112C4802F0CEF9C0
S31500001E704E238DF80730072322460DEB0301284831
S31500001E8002F0FEF8224640F20311244802F0BEF9A1
S31500001E902A4640F20D11214802F0B8F9F1238DF8D7
S31500001EA00730072322460DEB03011D4802F0E8F830
S31500001EB0224640F20311194802F0A8F92A4640F2D8
S31500001EC00D11164802F0A2F937238DF807300723C3
S31500001ED007260DEB03012246114802F0D1F82246EF
S31500001EE040F203110D4802F091F92A4640F20D1115
S31500001EF00A4802F08BF933460DEB060122460848E4
S31500001F008DF8076002F0BCF8224640F20311034840
S31500001F1002F07CF92A4640F20D1103E0D4100020AD
S31500001F20DC100020DF4802F071F94FF01002334652
S31500001F300DEB06018DF80720DB48224602F0A0F8DB
S31500001F40224640F20311D74802F060F92A4640F2D1
S31500001F500D11D44802F05AF933460DEB060122461C
S31500001F60D1488DF8079002F08BF8224640F2031113
S31500001F70CC4802F04BF92A4640F20D11C94802F04E
S31500001F8045F933460DEB06012246C7488DF807A0F2
S31500001F9002F076F8224640F20311C24802F036F902
S31500001FA02A4640F20D11BF4802F030F909230DEB25
S31500001FB0060122468DF80730BB48334602F060F82A
S31500001FC0224640F20311B74802F020F92A4640F2B1
S31500001FD00D11B44802F01AF933460DEB06012246FC
S31500001FE0B1488DF8075002F04BF82A4640F203112B
S31500001FF0AC4802F00BF92A4640F20D11A94802F04E
S3150000200005F9E1230DEB060122468DF80730A648B7
S31500002010334602F035F8224640F20311A14802F099
S31500002020F5F82A4640F20D119E4802F0EFF83346C5
S315000020300DEB060122469C488DF8075002F020F869
S31500002040224640F20311974802F0E0F82A4640F291
S315000020500D11944802F0DAF833460DEB06012246DC
S3150000206091488DF807A002F00BF8224640F20311C2
S315000020708C4802F0CBF82A4640F20D11894802F04E
S31500002080C5F814230DEB060122468DF80730864865
S31500002090334601F0F5FF224640F20311814802F073
S315000020A0B5F82A4640F20D117E4802F0AFF83346E5
S315000020B00DEB060122467C488DF8079001F0E0FF03
S315000020C02246112440F20311764802F09FF82A4670
S315000020D040F20D11734802F099F833460DEB0601F4
S315000020E0012271488DF8074001F0CAFF012240F233
S315000020F003116C4802F08AF82A4640F20D1169482D
S3150000210002F084F833460DEB0601012266488DF88D
S31500002110076001F0B5FF012240F20311614802F0A9
S3150000212075F82A4640F20D115E4802F06FF8334604
S315000021300DEB060101225C488DF8077001F0A0FF47
S31500002140012240F20311574802F060F82A4640F295
S315000021500D11544802F05AF833460DEB06010122E0
S3150000216051488DF8078001F08BFF012240F20311E0
S315000021704C4802F04BF82A4640F20D11494802F04D
S3150000218045F848230DEB06018DF80730012233464A
S31500002190454801F075FF012240F20311414802F063
S315000021A035F82A4640F20D113E4802F02FF8072373
S315000021B04FF008060DEB030101223B488DF807603E
S315000021C001F05EFF012240F20311364802F01EF8CC
S315000021D02A4640F20D11334802F018F8072301226F
S315000021E00DEB030130488DF807B001F049FF0122DD
S315000021F040F203112B4802F009F82A4640F20D116D
S31500002200284802F003F807234FF00C0C0DEB0301EE
S31500002210012225488DF807C001F032FF012240F265
S315000022200311204801F0F2FF2A4640F20D111D4825
S3150000223001F0ECFF072301220DEB03011A488DF88C
S31500002240077001F01DFF012240F20311154801F04D
S31500002250DDFF2A4640F20D11124801F0D7FF072391
S315000022604FF036070DEB030101220F488DF807707A
S3150000227001F006FF012240F203110A4801F0C6FFF1
S315000022802A4640F20D11074801F0C0FF072301223C
S315000022900DEB030104488DF807B001F0F1FE2A4664
S315000022A004E000BFD4100020DC10002040F203112F
S315000022B0234801F0ABFF2A4640F20D11204801F0F9
S315000022C0A5FF072301220DEB03011E488DF80740E9
S315000022D001F0D6FE2A4640F20311194801F096FF96
S315000022E02A4640F20D11164801F090FF07232921D6
S315000022F001228DF8071013480DEB030101F0C0FE13
S31500002300012240F203110E4801F080FF2A4640F2F6
S315000023100D110B4801F07AFF07234FF02C04012220
S315000023200DEB030107488DF8074001F0A9FE03B045
S31500002330BDE8F08F0449FEF7CFFEFFF7ADB800BF4A
S31500002340D4100020DC10002090B9000010B5002247
S3150000235082B0044640F20311394801F057FF0022CB
S3150000236040F20D11364801F051FF362107238DF852
S31500002370071001220DEB0301324801F081FE032C08
S3150000238020D8DFE804F04E400221012240F203117A
S315000023902B4801F03BFF002240F20D11284801F0C6
S315000023A035FF8024072301220DEB030125488DF814
S315000023B0074001F065FEF0204FF4A0722249234B3E
S315000023C008601A6002B010BD012240F203111C48D9
S315000023D001F01CFF002240F20D11194801F016FF12
S315000023E0B024072301220DEB030116488DF80740A0
S315000023F001F046FE4FF4A070F0221349134B08601B
S315000024001A6002B010BD012240F203110C4801F01F
S31500002410FDFE002240F20D11094801F0F7FE0024EE
S31500002420DFE7012240F20311054801F0EFFE00222A
S3150000243040F20D11024801F0E9FE4024B2E700BF68
S31500002440D4100020DC100020840100208001002030
S31500002450F8B504460A4F0B4E396833682A205D1ECC
S315000024600139FEF77BFF29462B20FEF777FF3B68F5
S315000024703168A0B203FB01F1BDE8F840FEF73CBEAF
S31500002480840100208001002050EA01030CD470B5BD
S31500002490224B0C46196882B0884203D2204B1E6834
S315000024A0B44202D302B070BD7047013941EA00411F
S315000024B02A201546FEF752FF711E41EA04412B20E1
S315000024C0FEF74CFF002240F20311164801F09EFE73
S315000024D007232C2101228DF8071013480DEB030169
S315000024E001F0CEFD012240F203110E4801F08EFEEE
S315000024F00723290A8DF8071001220DEB03010A486C
S3150000250001F0BEFD072301220DEB030106488DF8FD
S31500002510075001F0B5FD02B070BD00BF8401002078
S3150000252080010020D4100020DC1000202DE9F041AD
S3150000253016461D460F468046069C43EA01412A2060
S31500002540FEF70CFF44EA06412B200134FEF706FF96
S31500002550A41BE91B01FB04411FFA88F0BDE8F0410A
S31500002560FEF7CABD2DE9F04F89B09DF84C40924662
S31500002570013C1E46CDE90401032C13D8DFE814F014
S315000025801C019C0197001500DDE90123934240F0F0
S315000025905981129B049D13F9018F1293B8F1000F14
S315000025A040F01B8109B0BDE8F08F129B93F90050F3
S315000025B0002DF7D0B94BA846B94F059D0393C6F336
S315000025C00729C2F3072B0DF11F04039B04991A6810
S315000025D001F11003934200F206820A460F3141EAE6
S315000025E0024104932A20FEF7B9FE05F119012B20BA
S315000025F041EA0541FEF7B2FE002240F20311A94866
S3150000260001F004FE2C23012221468DF81F303846A6
S31500002610072301F035FD012240F20311A14801F024
S31500002620F5FD34225FFA88F3203B02FB03F39E4953
S315000026309A1E0A443231CB180293059532F8028F5E
S315000026400F2501920DE08DF81FB001F019FD07234B
S315000026500122214638468DF81FA001F011FD013DEB
S3150000266018D348FA05F313F0010F4FF001024FF0AB
S31500002670070321463846E6D18DF81F9001F000FD8C
S3150000268007230122214638468DF81F6001F0F8FC29
S31500002690013DE6D2DDE901239A42CFD1129B059D89
S315000026A013F9018F1293B8F1000F8ED17AE7129BBE
S315000026B093F90070002F3FF475AF784BBB46784D09
S315000026C0059F0393C6F30729C2F307280DF11F04DC
S315000026D0039B04991A6801F10B03934200F2888167
S315000026E00A460A3141EA024104932A20FEF736FEE1
S315000026F007F111012B2041EA0741FEF72FFE0022C8
S3150000270040F20311674801F081FD2C230122214686
S315000027108DF81F302846072301F0B2FC012240F253
S315000027200311604801F072FD5FFA8BF3203B03EB67
S31500002730C3035E499B009A1E0A442231CB180293BA
S31500002740059732F802BF102701920EE08DF81F8020
S31500002750013F01F095FC07230122214628468DF80A
S315000027601FA001F08DFC052F19D04BFA07F313F0CB
S31500002770010F4FF001024FF0070321462846E5D12D
S315000027808DF81F90013F01F07BFC072301222146B3
S3150000279028468DF81F6001F073FC052FE5D1DDE9B1
S315000027A001239A42CDD1129B059F13F901BF1293C3
S315000027B0BBF1000F8CD1F5E6129B93F90050002D6A
S315000027C03FF4F0AE354BA846354F049D0393C6F350
S315000027D00729C2F3072B0DF11F04039B05F108021D
S315000027E01B689A4200F2F980691D41EA05410635E7
S315000027F02A20FEF7B3FD059B2B20D91D41EA034194
S31500002800FEF7ACFD002240F20311264801F0FEFC63
S315000028102C23012221468DF81F303846072301F06C
S315000028202FFC012240F203111E4801F0EFFC204A62
S3150000283020495FFA88F3203B02EB031201EB0313F6
S315000028400293049532F8028B052501920EE08DF86D
S315000028501FB001F015FC07230122214638468DF8EA
S315000028601FA001F00DFC013DFFF48EAE48FA05F302
S3150000287013F0010F4FF001024FF0070321463846CF
S31500002880E5D18DF81F9001F0FBFB072301222146BD
S3150000289038468DF81F6001F0F3FBE4E78401002061
S315000028A0DC100020D41000205CC20000A8D5000077
S315000028B0E4EE0000F4EE00000123504A1370129B70
S315000028C093F90050002D3FF46DAE4D4BA84603938F
S315000028D0039B049D1B6805F110029A42494FC6F3FB
S315000028E00729CAF3072B0DF11F0470D8E91D41EA29
S315000028F005412A20FEF732FD059B2B2003F10F012F
S3150000290041EA0341FEF72AFD002240F203113E4848
S3150000291001F07CFC2C23012221468DF81F3038461D
S31500002920072301F0ADFB012240F20311364801F006
S315000029306DFC364A36495FFA88F3203B02EB4312B8
S3150000294001EB43130293049532F8028B072501929B
S315000029500DE08DF81FB001F093FB072301222146FD
S3150000296038468DF81FA001F08BFB013D18D348FABD
S3150000297005F313F0010F4FF001024FF00703214654
S315000029803846E6D18DF81F9001F07AFB0723012225
S31500002990214638468DF81F6001F072FB013DE6D2F4
S315000029A0DDE901239A42CFD1144B049D1B7805EB38
S315000029B0C305129B13F9018F1293B8F1000F3FF470
S315000029C0F1AD039B05F110021B689A428ED9059B57
S315000029D0012510330F4905938BE7059B072508331F
S315000029E00D49059304E711230C491A350493F9E5BB
S315000029F00C230B491237049377E600BF880C00209E
S31500002A0084010020DC100020D410002004E3000024
S31500002A1024E3000008000100060001001000010088
S31500002A200B0001002DE9F04F01EB0309494583B086
S31500002A3022D24FF00008531E019343460E466FF014
S31500002A40404B80469A468718474512D944460C9B08
S31500002A500BEB0A0503EB85052046314655F8042F96
S31500002A600134FFF711FDA742F6D8019B5A1C12EB61
S31500002A700A0A01364E45E7D303B0BDE8F08F00BF22
S31500002A80704700BF2DE9F04F304F314D314EDFF822
S31500002A90C880DFF8D890DFF8D8B0DFF8D8A083B0C8
S31500002AA019E04FF0000300202B70FEF715FB3A7873
S31500002AB02B789A4209D0D9F8000003F0B1F903281F
S31500002AC003D1D9F8000003F0FFF9204604F0C4FA58
S31500002AD0642003F093FB59460020FEF7FDFA2B789D
S31500002AE04FF0FF3130683B7002F0FAFC504606F0BA
S31500002AF02DF90023044619461A46306802F04EFBAB
S31500002B0021461548FDF7FAFDD8F828301349012B60
S31500002B10C7D14FF0FF3130682B7002F0E1FCD8E9E5
S31500002B20002398ED047B0E498DED007B0D4806F0E1
S31500002B30E5F8002330681A46194602F02FFB094AC9
S31500002B4009490020FEF7C8FAB1E700BF890C00204A
S31500002B508A0C0020D0100020900C0020C8B900007C
S31500002B60B0B9000088010020C0B90000F40F0020B1
S31500002B709CB900001C0D0020704700BF2DE9F04FE6
S31500002B80444EDFF848B1DFF848A1DFF84891DFF896
S31500002B904881414F414D83B01AE0FEF79DFA404906
S31500002BA0404800F085FD3B683F4A3B495A603F4A32
S31500002BB028469A6001F042FE284601F059FD00239E
S31500002BC030681A46194602F0E9FA002003F09CF82C
S31500002BD077244FF0FF31306802F082FCFEF74EFC9E
S31500002BE033490020FEF778FA0320FFF7AFFB0020F9
S31500002BF0FFF72EFC0094EF24EF23732200214FF6FB
S31500002C00FF70FFF793FCF4230022F0214FF6FF70CC
S31500002C100094FFF78BFC14210420022400234FF6B6
S31500002C20FF72CDE900B00846FFF79CFC00234FF683
S31500002C30FF72B9210F20CDE900A4FFF793FC002312
S31500002C404FF6FF72D2210F20CDE90094FFF78AFCE0
S31500002C5046230A211A46F520CDF80080FFF7E2FE4A
S31500002C604623144AA0210092F5201A46FFF7DAFE01
S31500002C704623114A55210092F5201A46FFF7D2FE47
S31500002C800E490F4800F014FD0E49002885D000209B
S31500002C900D4982E7D0100020700D0300801100203E
S31500002CA0F00C030018110020058411401C0D0020B3
S31500002CB0D4B90000B48D010024410100240D0300A5
S31500002CC04811002008BA000018BA0000E0B9000058
S31500002CD0E8B90000F8B9000094F400002DE9804836
S31500002CE089B03D4CDFF81481DFF814B13B4EDFF8B4
S31500002CF014A1DFF814913A4D03AF28E002234FF6F2
S31500002D00FF72B921CDE900B30F200023FFF72AFC9B
S31500002D104623344A55210092F5201A46FFF782FED3
S31500002D2033789BBB0222D22101920F204FF6FF720D
S31500002D30CDF800A0FFF716FC4623A021F5201A4681
S31500002D40CDF80090FFF76EFE002003F0DDFA29466D
S31500002D500020FEF7C1F9237863BB98F80030002BFA
S31500002D60CCD1022220490F20CDE900124FF6FF7286
S31500002D70B921FFF7F7FB46231C4A55210092F5209F
S31500002D801A46FFF74FFE3378002BCBD00223019370
S31500002D90174B4FF6FF720093D22100230F20FFF747
S31500002DA0E1FB4623134AA0210092F5201A46FFF7BD
S31500002DB039FEC9E74FF0000338460F49237006F085
S31500002DC0A9F804234FF6FF72CDE9007341210023D1
S31500002DD02820FFF7C7FBC0E7180D0020190D0020BB
S31500002DE034BA000044DA01005CBA0000D4260200BE
S31500002DF08CBA000064730200AC0400208A0C002028
S31500002E0044BA000074BA0000F4BF0200F8B50379B2
S31500002E10022B46D0042B00D0F8BD244E836832889E
S31500002E202348541C8354DBB2A4B20A2B3480F3D15A
S31500002E30204906F03DF828B101221F4B20461A70A2
S31500002E40FDF718FD1D491A4806F032F810B1308812
S31500002E50FDF722FD1A49164806F02AF898B130887F
S31500002E60FDF72CFD4FF0000C164C174D174F0FCDEC
S31500002E700FC40FCD0FC40FCD0FC495E80F0084E823
S31500002E800F0087F800C00A4A11490020FEF724F90E
S31500002E904FF400720021064805F050FF00233380EE
S31500002EA0F8BD01220B4B1A70F8BD00BF3C0600208E
S31500002EB008070020A4BA0000180D0020ACBA0000D4
S31500002EC0B0BA0000D80C0020900C0020190D00208C
S31500002ED0B8BA0000D00C0020DFF8A4A080B5DAF85C
S31500002EE00000224C03F010FA21490020FEF7F4F806
S31500002EF04FF0FF31206802F0F3FAFDF71FFD0023C3
S31500002F0020681A46194602F049F91A4EDFF874800D
S31500002F10DFF87490184D194F13E098F8003003BB92
S31500002F204FF0FF31206802F0DBFA3846FDF756FD18
S31500002F30002320681A46194602F030F9642003F08F
S31500002F405DF929460020FEF7C7F83378002BE4D157
S31500002F50D9F8000002F0B8FFDAF8000002F0B4FF7A
S31500002F60ECE7D9F8000002F0AFFFD9E7D010002057
S31500002F70BCBA0000190D0020CCBA00008801002060
S31500002F8064100020180D0020F40F002080B51C4DA1
S31500002F901C4CDFF87CA0DFF87C90DFF87C801A4FB1
S31500002FA01A4E8AB039460020FEF796F84FF0FF31E8
S31500002FB0286802F095FAFDF7C1FCD4E9002394EDE8
S31500002FC0047B31468DED007B03A805F097FE03A830
S31500002FD0FDF704FD002328681A46194602F0DEF8BC
S31500002FE00123D9F800008AF8003002F06DFFD8F806
S31500002FF0000003F089F9642003F000F9D2E700BF6E
S31500003000D0100020D80C0020E0BA0000FCBA000066
S31500003010190D0020F40F002064100020022800D0B3
S3150000302070470249024801F0CBB900BF900D03007A
S31500003030D410002010B5044600F018F92046BDE86B
S315000030401040FFF71FBD00BF30B501240D480E4AE2
S3150000305003680E4D85B01919CDE901250C4B0160A9
S315000030604FF480720B490C48009402F0CDFD0B4BD7
S31500003070186008B105B030BD014605B0BDE8304066
S3150000308000F0F2B8B816002040700020200F002093
S31500003090840C030014BB0000353000001C0F002018
S315000030A010B5044600F0E2F82046BDE81040FFF7F0
S315000030B065BD00BF30B502240D480E4A03680E4DAB
S315000030C085B0591CCDE901250C4B01604FF4807287
S315000030D00B490C48009402F097FD0B4B186008B1A1
S315000030E005B030BD014605B0BDE8304000F0BCB8C3
S315000030F0B8160020407400208C0F0020880C0300B6
S3150000310020BB0000A1300000880F002010B5044647
S3150000311000F0ACF82046BDE81040FFF7DFBD00BF69
S3150000312030B501240D480E4A03680E4D85B01919B5
S31500003130CDE901250C4B01604FF480720B490C4818
S31500003140009402F061FD0B4B186008B105B030BD6C
S31500003150014605B0BDE8304000F086B8B81600203C
S3150000316040780020F80F00208C0C03002CBB0000D8
S315000031700D310000F40F002010B5044600F076F87B
S315000031802046BDE81040FFF7A7BE00BF30B50125B9
S315000031900C480D4C036883B0591901944FF4006232
S315000031A001600A4B0A490B48009502F07BFDA842D4
S315000031B001D103B030BD0021206803B0BDE8304026
S315000031C000F052B8B816002060100020900C0300E2
S315000031D034BB00007931000010B5044600F046F813
S315000031E02046BDE81040FFF7D1BE00BF30B5012430
S315000031F00D480E4A03680E4D85B01919CDE9012513
S315000032000C4B01604FF480720B490C48009402F09D
S31500003210FBFC0B4B186008B105B030BD014605B08C
S31500003220BDE8304000F020B8B8160020407C0020F1
S3150000323068100020940C030040BB0000D931000048
S315000032406410002008B5012002F074F8044B1860E1
S3150000325000B108BD0146BDE8084000F005B800BF52
S31500003260D0100020FFF7EEBF00BE704738B5164CF1
S315000032704FF0FF31206802F033F9012803D0002116
S315000032802068FFF7F1FF114B1A7802B138BD012211
S315000032901A70FFF7E7FF0E4D2B68013B2B60002BE2
S315000032A0F4D0002320681A46194601F077FF01285A
S315000032B0F2D000212068FFF7D7FF2B68013B2B6077
S315000032C0002BEED138BD00BFB0160020B41600208A
S315000032D0B816002038B500230F4D104C01214FF4CD
S315000032E080700F4A2B60237001F01AFF0D4B186097
S315000032F068B1FFF7DFFEFFF7A7FEFFF747FFFFF70F
S3150000330075FFFFF70DFF02F03FFE002038BD0146B6
S31500003310FFF7AAFFEDE700BFB8160020B41600209D
S3150000332068160020B0160020802330B4034D044CEC
S3150000333005600C60136030BC704700BF00160020AB
S3150000334000140020802330B4034D044C05600C604B
S31500003350136030BC704700BF9813002098110020FE
S3150000336000BEFEE71EF0040F0CBFEFF30880EFF37C
S315000033700980014908470000093400000F4B19680D
S31500003380EFF309821EF0100F08BF22ED108A22E922
S31500003390F04FEFF30B8342F8043D0A604FF0100044
S315000033A080F31188BFF34F8FBFF36F8F02F064FF76
S315000033B04FF0000080F3118800F002B8F4410020BD
S315000033C0074801680A6802CA81F30B88B2E8F04F21
S315000033D01EF0100F08BFB2EC108A82F309887047FE
S315000033E0F441002010B5EFF31184102383F3118804
S315000033F002F032FF18B14FF08052024B5A6084F34C
S31500003400118810BD00ED00E008B5836913F8023C91
S31500003410022B02D0032B04D808BDBDE80840FFF7F5
S31500003420CFBF4FF47E71024B024A034801F0CEFA39
S3150000343050BB0000940F030064BB000070B44FF053
S3150000344080756FF00204094E283122F0010240F81F
S315000034500C6C40F8045C40F8244C40F8203C40F8E2
S31500003460082C70BC40F8481D704700BF613300004F
S3150000347008B5EFF31181102383F311880A4A136804
S315000034800133012B136000D008BD084A084B1160B8
S315000034905B68C3F30803002BF6D040F2A441054B4A
S315000034A0054A064801F092FAC0160020BC16002014
S315000034B000ED00E08CBB0000800F030064BB000041
S315000034C008B5094A13683BB1013B13601BB9074BAA
S315000034D01B6883F3118808BD40F2AD41044B054AD1
S315000034E0054801F073FA00BFC0160020BC16002084
S315000034F0D4BB00006C0F030064BB000080B3194B03
S315000035009A8990B2120409D4BFF34F8F30BFBFF32C
S315000035106F8F62B6BFF36F8F72B670474AF2025171
S315000035204FF0000CB3F8FE23A3F8FE1392B242F458
S315000035302542A3F80CC0A3F8FE23BFF34F8F30BF7C
S31500003540BFF36F8F62B6BFF36F8F72B6B3F8FE2309
S31500003550A3F8FE1392B242F425429881A3F8FE2303
S31500003560704700BF00E0014008B572B602F056FD94
S315000035700120FFF7C3FF62B6BDE8084002F056BD62
S315000035800D4B0E4A1B68A2FB03239B09013BB3F1BB
S31500003590807F00D370474FF0E0224FF0F00C002000
S315000035A0072110B4064C536184F823C09061116161
S315000035B05DF8044B704700BF90180020D34D621091
S315000035C000ED00E0F02208B50B4B83F82220FFF750
S315000035D0D7FF0A4A536B43F04043536362B6BFF3C7
S315000035E06F8FEFF3148C2CF0040C8CF31488BFF35C
S315000035F06F8F02DF00BEFDE700ED00E000EF00E0A8
S3150000360070B50D460446016A8B7803F07B038B7018
S315000036108078E66900F00300121A2918C4E903123B
S31500003620336903B172B9226A937843F080039370C9
S31500003630A37803F00303022B11D0236A2A78DA70E9
S31500003640002070BD0138C24093B200222261306969
S3150000365086680068B668B0470028E4D0F1E72B8892
S31500003660226A43F47E43D381EAE700BFF0B5846A59
S3150000367085B005460F4694466E46B4B194E80F00F1
S3150000368086E80F00EB6920461B78A760236084F864
S3150000369004C0EB6AE3606B6A9847AC6A1CB196E8B3
S315000036A00F0084E80F0005B0F0BD3446EAE700BF1E
S315000036B001222DE9F0410B780D469A4012F0060FD3
S315000036C0044605D0CA6952681278110700F11382C0
S315000036D00021012003F5800303F58C531B02C4E986
S315000036E0075321706E69A3786662AE6960F30103C1
S315000036F0C4E90A16A3706B78C54A8B4214BF064606
S315000037000226A37866F30103A37095F90B6095F87A
S315000037100AC0730906F01F07203300FA07F742F8BC
S315000037202370BFF34F8FBFF36F8FBA4B06F1C007FD
S3150000373053F827E061F3104E43F827E053F827705B
S31500003740B54F4FEA0C1C02EB060E5FFA8CFC8EF8A6
S3150000375000C347F8264095F9056095F804C04FEA7E
S31500003760561E06F01F080EF1200E00FA08F842F861
S315000037702E80BFF34F8FBFF36F8F06F1C00E53F845
S315000037802E8061F3104843F82E8053F82EE04FEA5E
S315000037900C1C02EB060E5FFA8CFC8EF800C347F891
S315000037A0264095F9076095F806C04FEA561E06F0C2
S315000037B01F080EF1200E00FA08F842F82E80BFF31B
S315000037C04F8FBFF36F8F06F1C00E53F82E8061F353
S315000037D0104843F82E8053F82EE04FEA0C1C02EBFB
S315000037E0060E5FFA8CFC8EF800C347F8264095F962
S315000037F0096095F808C04FEA561E06F01F080EF13C
S31500003800200E00FA08F842F82E80BFF34F8FBFF360
S315000038106F8F06F1C00E53F82E8061F3104843F8FF
S315000038202E8053F82E304FEA0C13DBB2324482F866
S31500003830003347F82640EB68E3B14FF400215B689C
S315000038401A681160EB68216A5E684F1D366857601A
S31500003850E7697F782FB9F778103160F30517F770AD
S315000038605160D3E90112186812689047064600288D
S3150000387040F023812B69EBB14FF000615B681A6859
S3150000388011602B69216A5868CE1C00689660E6694B
S31500003890767836B90127C6780E3167F30516C670F5
S315000038A09160D3E90112186812689047064600280D
S315000038B040F01981EFF31080012383F310884FF055
S315000038C00041564B2E785A68F14022EA01025A60AE
S315000038D05B6880F31088002340F21922216A8B70FE
S315000038E0216A0B71216A4B72216A8B72216ACB7233
S315000038F0216A4B832B7822FA03F3DA0702D540229A
S31500003900236ADA74062140F21923226A11772A788B
S31500003910D340DB0703D54FF47842236A9A82EB78CB
S315000039206A78A978DB00032A43EA011300F0C8800D
S31500003930002A0CBFE222F222216ADBB20B70236A54
S315000039409A71EA69137B082B00F0C980216A5B0033
S3150000395003F002034B73002053789178DB01490191
S3150000396001F02001DBB20B43216A0872117802399B
S315000039700129216A40F2A880DBB2CB715268236A22
S31500003980917859705078197860F301011970D178DF
S315000039909974D979127801F0A30102F05C020A4306
S315000039A0DA710020C4E90300C4E90500E269194B95
S315000039B092F90510EE6901F1C00253F822703578CC
S315000039C060F3104743F8227005F0030553F82220F0
S315000039D0BFF35F8F01274A09920001F01F0102F130
S315000039E0604202F5614207FA01F1C2F880111160E6
S315000039F0E26992F90B1001F1C00253F822C060F39C
S31500003A00104C43F822C053F82220BFF35F8F07E023
S31500003A1000E100E00060004004170020004008407C
S31500003A204A09920001F01F0102F1604207FA01F112
S31500003A3002F56142C2F880111160E26992F907103D
S31500003A4001F1C00253F822C060F3104C43F822C0C3
S31500003A5053F82220BFF35F8F4A09920001F01F013D
S31500003A6002F1604207FA01F102F56142C2F88011E3
S31500003A701160E26992F9092002F1C00153F821C0F0
S31500003A8060F3104C43F821C053F82130BFF35F8F29
S31500003A9053099B0002F01F0203F16043974003F5B0
S31500003AA06143C3F880711F60236A45F070059D70FD
S31500003AB072890646124B228163603046BDE8F0816A
S31500003AC0F22243F0400337E7FF2048701278022ABB
S31500003AD008BF43F01003226ADBB2D37161E70A2103
S31500003AE0236A597337E7EB68002BE6D09A681868A3
S31500003AF0136A9847E1E703263046BDE8F08100BF28
S31500003B0055494353EFF30383103B1F4A5BB203F15E
S31500003B10C00152F8210020F4803042F8210052F80A
S31500003B2021201A4A52F82300C3691B6983B103692D
S31500003B3003B17047026A0021937803F07F0343F0D4
S31500003B4004039370436AC160C3B18022FFF78EBD40
S31500003B500369026A002BEED08378C16803F0030381
S31500003B60022B0CD00B78D3708278D0E9031302F0C5
S31500003B7003029B1A1144C0E90313D9E770470B8867
S31500003B8043F47E43D381EFE7006000400417002032
S31500003B9010B582B0EFF30383103B274A5BB203F103
S31500003BA0C00152F8210020F4803042F8210052F87A
S31500003BB02120224A52F82340E369DB68002B38D0E3
S31500003BC0A369ABB9A278216A02F0030002280BBFF1
S31500003BD0098A4979C1F30801C9B20191A3B9636A97
S31500003BE02BB30422204602B0BDE81040FFF73EBDCD
S31500003BF00021636AC4E90511CBB10122204602B057
S31500003C00BDE81040FFF732BD02F0030201A960696A
S31500003C1005F096F9D4E90521A37803F003031A44C5
S31500003C20C91AC4E9052111B9636A002BE5D102B0AE
S31500003C3010BDA369C6E700BF00600040041700205E
S31500003C4010B5EFF303830E4A103B5CB252F8240022
S31500003C50026A937803F07B039370436A1BB10222D6
S31500003C600021FFF703FD074A04F1C00352F82310B1
S31500003C7021F4803142F8231052F8233010BD00BFE2
S31500003C80041700200060004010B5EFF303831A4AC2
S31500003C90103B5CB252F82400837803F00303022B36
S31500003CA0036A0CBF198A597993F804C00CBFC1F393
S31500003CB00801C9B21CF0100F0CF0380206D093F8B8
S31500003CC01CC01CF0010F08BF42F0400293F804C06C
S31500003CD00CF0C70C83F804C0436A0BB1FFF7C6FCAF
S31500003CE0064A04F1C00352F8231021F4803142F849
S31500003CF0231052F8233010BD041700200060004046
S31500003D0030B5436A85B004468C4601ADABB193E845
S31500003D10070085E8070062681846127883F804C031
S31500003D201A60A26A9A60236A9847636A1BB195E88B
S31500003D30070083E8070005B030BD2B46EBE700BF60
S31500003D402DE9F04F00270A78416002F5800202F55E
S31500003D508C52120282608A6903460262CA6983B083
S31500003D60C0E909720C6A94F9022094F80180BA42FB
S31500003D70ACBF384604204A7A0190887A94F802E06B
S31500003D80A8BF4FF0FF0E012A12BFBC4602274FF014
S31500003D90050C08F003080128CA7A48F0800800F0EC
S31500003DA0FE80012A14BF4CF0800C4CF0C00C4A7BFC
S31500003DB0002A0CBFEA26E226EFF3108A012282F3DC
S31500003DC010884FF0004B91F8009078482BFA09FBC9
S31500003DD0D0F8049029EA0B09C0F8049040688AF3E9
S31500003DE0108800204FF0840A4FF478499D685FFAE6
S31500003DF088F8A8709D685FFA8CFC95F804B085F881
S31500003E0004A09D68A5F814909D6885F800809D68BB
S31500003E10AF709D684027AE7126789C68019D6670DC
S31500003E2002269C6884F812E09C68E5719C6884F818
S31500003E300DC09C6820729C6860729C68A0729C6829
S31500003E40E0729C6860839C68E7749C68584F26778C
S31500003E5091F805C091F90150564E4FEA0C1C564C8C
S31500003E6006EB050E5FFA8CFC8EF800C347F825308A
S31500003E7005F1C00C54F82CE060F3104E44F82CE029
S31500003E8054F82CC0BFF35F8F4FEA551C4FEA8C0CD9
S31500003E9005F01F050CF1604C02FA05F50CF5614CB6
S31500003EA0CCF88051CCF8005091F806C091F9025038
S31500003EB04FEA0C1C06EB050E5FFA8CFC8EF800C36D
S31500003EC047F8253005F1C00C54F82CE060F3104E8D
S31500003ED044F82CE054F82CC0BFF35F8F4FEA551C12
S31500003EE04FEA8C0C05F01F050CF1604C02FA05F543
S31500003EF00CF5614CCCF88051CCF8005091F807C015
S31500003F0091F903504FEA0C1C06EB050E5FFA8CFC88
S31500003F108EF800C347F8253005F1C00C54F82CE0A4
S31500003F2060F3104E44F82CE054F82CC0BFF35F8FBA
S31500003F304FEA551C4FEA8C0C05F01F050CF1604C3E
S31500003F4002FA05F50CF5614CCCF88051CCF800501E
S31500003F500D7A91F904102D010E44EDB286F8005346
S31500003F6047F8213001F1C00554F8256060F310468A
S31500003F7044F8256054F82540BFF35F8F01F01F0415
S31500003F804909890001F16041A24001F56141C1F88A
S31500003F9080210A60094A1A6003B0BDE8F08F002A42
S31500003FA07FF405AF4CF0400C01E700BF004008402D
S31500003FB00417002000E100E000600040534943532D
S31500003FC003698BB143681A6942B1F021826893781C
S31500003FD00B43937043681A6942B170475B69002BC3
S31500003FE014BFF0217021F1E7A021EFE75A69002AFA
S31500003FF0F3D10269002AF0D0012110B493F90130FF
S315000040001E4C5A0903F01F03203201FA03F344F849
S315000040102230BFF34F8FBFF36F8F4369C26993425C
S3150000402007D2D0E9021222B3D35CCB7043690133C5
S3150000403043614268517A01290CD092F9013001227C
S3150000404003F01F000D495B09824041F823205DF80B
S31500004050044B7047C1690129EFD99942EDD9D0E9DE
S31500004060021242B1D35CCB704369426801334361AB
S31500004070E3E7CA70DAE7CA70F6E700BF00E100E0DE
S3150000408010B58468A47814F0300408D1C0E905445A
S31500004090C0E90314C261FFF793FF204610BD082054
S315000040A010BD00BFEFF30383103B164A5BB203F16A
S315000040B0C00152F8210020F4803042F8210052F865
S315000040C02120114A52F823305A69D9698A4208D206
S315000040D0D3E9020199B18A5CC2705A69D969013281
S315000040E05A618A4200D070471A69002AFBD19A6841
S315000040F0937803F07B0343F0040393707047C17019
S31500004100EBE700BF0060004004170020EFF30383D5
S31500004110103B194A5BB203F1C00152F8210020F4AA
S31500004120803042F8210052F82120144A52F82330F8
S315000041305969DA69914208D2D3E90202D2B1525CD6
S31500004140C2705969DA69013159619969914207D298
S315000041504A1C98689A6140791A695054D3E9061244
S31500004160914206D19A68937803F03B0343F0040327
S3150000417093707047C270E4E70060004004170020A7
S3150000418010B5EFF303830C4A103B5CB252F82400DF
S3150000419001218268937803F003039370FFF7B0FD63
S315000041A0064A04F1C00352F8231021F4803142F884
S315000041B0231052F8233010BD041700200060004081
S315000041C010B5EFF303834FF0840C0E4A103B5CB23C
S315000041D052F8240004218268937803F00303937055
S315000041E083681A7983F804C0FFF78AFD064A04F14A
S315000041F0C00352F8231021F4803142F8231052F8FC
S31500004200233010BD04170020006000400120CBB20F
S31500004210984080B202B900040B0A5B0103F18043A7
S3150000422003F5002398600020704700BF2DE9F84F82
S315000042300388DBB182464FF0000B4FF00109DFF82F
S31500004240D0800024304D4FEACB07DAF8043035F839
S31500004250022BD919898891420AD00134032CF4D152
S31500004260BAF800300BF1010B5B45EAD8BDE8F88FD0
S31500004270DB5909FA04F603F0B853B3F1807FF6B2BE
S3150000428098F8BB3413D0334231D1204A04F12006CA
S3150000429012F81630DB09E0D012F81630012123F0AF
S315000042A08003C82002F8163000F098FBD5E73342A9
S315000042B011D0164A04F1200112F81130DB09CCD1D5
S315000042C012F81130C82043F0800302F811300121A2
S315000042D000F084FBC1E7012000F04CFC98F8BB34E9
S315000042E00120334388F8BB3400F014FCE1E70120D9
S315000042F000F040FC98F8BB34012023EA060388F856
S31500004300BB3400F007FCC0E7A80F030000300840EC
S3150000431000E00140F8B50646FFF788FFEFF310828C
S31500004320012383F31088234F3B681BB92249CB70C6
S315000043304023CB703B6801333B6082F3108833889F
S3150000434023B300211D4D08E01B01134445F823400B
S31500004350328801318BB29A4218D9736853F83140CA
S3150000436003EBC1029288E0034FEA1223D2B2EBD5E7
S3150000437002EB031055F820E024F4803C2EF4803E36
S3150000438045F820E01B0145F820C0DEE7EFF3108278
S31500004390012383F310883B6813B13B68013B3B6004
S315000043A03B681BB980200449CB70C87082F3108823
S315000043B0F8BD00BF00170020000D084000080840A7
S315000043C008B5034B03600846FFF7A4FF002008BDAD
S315000043D054524F50844630B482B0019100921D4928
S315000043E090F904201C4D51F82200C03255F82210D5
S315000043F01A4C21F0807145F822109CF9041041F402
S315000044000041E28992B29142FBD008222274019ABD
S315000044100AB1019A4260009A0AB1009A8260C27893
S3150000442002F0C001802913D03F2A98BFC381182209
S3150000443000200A4B08491A749CF90430C03351F81D
S31500004440232042F0807241F8232002B030BC70472E
S315000044508381ECE70000002000600040005400402B
S315000044600620704706207047034693F90430054935
S31500004470C03351F82320002042F0807241F82320F7
S31500004480704700BF00600040034693F904300549B9
S31500004490C03351F82320002022F0807241F82320F7
S315000044A0704700BF00600040002290F90400124BE4
S315000044B053F82030C1E90022DA783F2A0CD94FF4AC
S315000044C080728A60DA89D2B2CA60DA7802F0C002F3
S315000044D0802A09D0002070474FF480328A60DB8939
S315000044E000209BB2CB6070474FF480320A609B89F4
S315000044F000209BB24B6070470000002006207047EA
S31500004500062070470346002230B593F904C0074CD5
S315000045100CF1C00E54F82E10054D21F0807144F8B0
S315000045202E1045F82C201A60104630BD0060004061
S315000045300000002030B5864690F904301C4DC0338B
S3150000454055F823201B4C22F0807245F8232090F961
S31500004550042042F40042E3899BB29A42FBD00B4608
S31500004560DA789C463F2A05D9DA89D2B202EB0222D2
S3150000457092B2DA819CF8022010333F2AF0D84FF02D
S31500004580080C18220B4B0C4D83F810C09EF904C082
S31500004590074C45F82C101A749EF904300020C033DD
S315000045A054F8232042F0807244F8232030BD00BF27
S315000045B0006000400054004000000020F8B5274A83
S315000045C0044613780D4643B36B6893F90030002B0D
S315000045D040DB234850F82320002A3DD123712D6863
S315000045E0BDB12B46DA7819463F2A05D9DA89D2B207
S315000045F002EB022292B2DA818A7810333F2AF1D88E
S3150000460008211822174B197494F9041040F8215008
S315000046101A74154B00202360F8BD01261670EFF3BF
S31500004620108086F31088114A116821F48001116008
S31500004630126880F310880A4F19464FF4C072384644
S3150000464004F07CFB074B5F611E736B6893F90030C7
S31500004650002BBEDA0B20F8BD0820F8BDC4160020DA
S31500004660000000200054004000435444004008402D
S31500004670034601229B6800201A7770472DE9F04710
S31500004680002643686B4A5C682378A03342F82360AF
S3150000469083681E7723786589A03342F823508368A0
S315000046A05E77CA7891F802809646C8F3810CC2F309
S315000046B081074FEA8C1C9309CD894CEA873C0EF0A2
S315000046C0C0079B03C2F30112802FADB243EA022357
S315000046D008D0402F06D0C02F00F0A380B24643F486
S315000046E000530AE08A8905EB0545C8F3001625F054
S315000046F0FC251FFA82FA43EA063366890EB143F0B7
S315000047000103C668CEB318F0200F5BD1102694F9CA
S31500004710017094F802E007F160484FEA0E1EDFF8D8
S3150000472018915FFA8EFE08F5614888F800E3DFF815
S3150000473004E149F8270007F1C0085EF8289029F43B
S3150000474080394EF828905EF828E0BFF35F8F4FF06F
S3150000475001084FEA571E4FEA8E0E07F01F070EF1AB
S31500004760604E0EF5614E08FA07F7CEF88071CEF866
S31500004770007091F803E00EF0C007C02F27D04FF06D
S31500004780000EF04687681FFA8CFCC7F828808768F9
S315000047909BB2C7F82CE08768A7F814C087683B82ED
S315000047A04F6883681F6083688968596083689D6065
S315000047B08368C3F80CA0836862689A618368DE74B4
S315000047C0BDE8F087C02F14BF1C2610269FE70EF009
S315000047D00C07B1F80CE0B1F80E80042F1FFA8EFE1C
S315000047E01FFA88F908BFF0468F7818BFB4F808801A
S315000047F007F00C0708BF4CF4005C042F82684F6872
S3150000480018BF1EFB09F917628F68826814BF1FFA6A
S3150000481089FE4CF0200C08EB08480EEB0E4E576252
S31500004820B0E78A8905EB054525F0FC251FFA82FAD3
S3150000483063E700BF006000400417002070B5002544
S315000048404A6841601378044603F1012340339B0113
S315000048508360D368C3605369C0E90453EFF3108ED5
S315000048604FF0010C8CF3108813780A4A1633166839
S315000048700CFA03F326EA0303136013688EF3108819
S31500004880054B83F800C00968FFF7F8FE034B28467E
S31500004890236070BD004008400052004043414D4433
S315000048A0064B074993F826001A6A51F82030C2F3DE
S315000048B002620449D3400B60704700BF00E001402C
S315000048C0AC030020901800204AF2035001232D4922
S315000048D02D4A2DE9F043A1F8FE03A2F80431B2F8FF
S315000048E004319BB2002BFAD14FF400440121274832
S315000048F0274D846004F19874C0E9033304F52D4410
S31500004900A2F8001104601F4A224C456192F8265015
S315000049104460146A82F8801482F8363092F83C308B
S31500004920D907FBD542F2117400231649148582F883
S315000049302A3091F83C309B06FBD505224FF0010941
S31500004940F12500244FF0F00E4FF4254CDFF83880A7
S31500004950114F88F81C910F6281F8262091F82620C5
S315000049600E4B50F82220086A0D4EC0F30260C2407A
S3150000497032601D731C7283F80CE0A1F8FEC3BDE81B
S31500004980F08300BF00E0014000C00140AC030020FE
S3150000499000C2EB0B00127A00211202210020004017
S315000049A09018002010B50024064B012083F82840FB
S315000049B000F0E0F8044B012083F8BB44BDE810404A
S315000049C000F0A8B80030084000E0014000BEFEE755
S315000049D0A0F101000028FBD1704700BF4FF47A73A5
S315000049E010B400FB01F1114C114A2468B2FBF4F239
S315000049F0A1FB03043CB9B0FBF2F0800860B15DF89E
S31500004A00044BFFF7E5BF9200B1FBF2F1A1FB0313E4
S31500004A102BB908460028F2D15DF8044B70474FF0D9
S31500004A20FF3C5DF8044B6046FFF7D2BF90180020AC
S31500004A3000CA9A3B70B500240B4B0C4EB3F82021EC
S31500004A40B3F84051ADB2154025FA04F3DB0704D59F
S31500004A5056F82430E0B203B1984701340E2CF3D156
S31500004A60014BA3F8305170BD00600040C81600200D
S31500004A7030B5032085B000F07DF86FF0FF054FF0EC
S31500004A80FF31204C002322464FF0010E1E4885645C
S31500004A90CDE90111039104F1C00532F8020F59095D
S31500004AA060B104A800EB810151F80C0C03F01F0C57
S31500004AB00EFA0CFC20EA0C0041F80C0C954203F1AE
S31500004AC00103EAD10199114B0F4A03201167C3F87C
S31500004AD0801202995167C3F8841203999167C3F84B
S31500004AE0881200F017F80023094834F8022F03F162
S31500004AF0C00101330AB140F82120A542F5D105B025
S31500004B0030BD00BFAA0E03000080004000E100E0B7
S31500004B1000600040EFF31081012383F31088124BED
S31500004B2033F8102092B22AB133F81020013A92B22B
S31500004B3023F8102033F810309BB293B910B40B4A07
S31500004B400B4CB2F8FE3334F810009BB243F4254305
S31500004B5023EA0003A2F8FE3381F310885DF8044BC4
S31500004B60704781F3108870478418002000E00140E8
S31500004B70DC0F030030B4EFF31081012383F31088B8
S31500004B800E4A32F810309BB26BB90D4C0D4DB4F88D
S31500004B90FE3335F810C09BB243EA0C0343F42543B9
S31500004BA09BB2A4F8FE3332F8103001339BB222F8E0
S31500004BB0103081F3108830BC704700BF8418002085
S31500004BC000E00140DC0F030008B50C4A03461068FC
S31500004BD040B103330A4923F0030303448B4205D84B
S31500004BE0136008BD074908461160F2E704F08AF928
S31500004BF00C2203461A604FF0FF3008BD8C180020C7
S31500004C00406C00204044002000BE704708B500F00C
S31500004C1003F8FEF75FFBFEE74FF4700270B52A4B10
S31500004C202A4CC3F8882000209C60FEF7F7F9FFF7AE
S31500004C304BFE0120FEF7F2F92368A3F5806383F3A8
S31500004C400A882348234A0021121A04F077F82248DA
S31500004C50224A2349121A04F073F9224D224B5B1B98
S31500004C60002B07DD00249E1055F8043B01349847BD
S31500004C70A642F9DCFFF714FEFFF794FE0320FFF7C8
S31500004C8079FF4FF6FF720024184B03201A825A82CE
S31500004C909A82DA821A835A83FFF73CFF0320FFF7D2
S31500004CA069FF134B03205C609C60DC601C61FFF7AE
S31500004CB031FF0220FEF7B2F9FFF7DAFE2046BDE823
S31500004CC0704000F017B800BF00ED00E000000000E3
S31500004CD0C80300203C44002080010020AC030020D3
S31500004CE0B4160300A4030020A8030020000D08400A
S31500004CF000000E40704700BFF8B5044601F08EF97B
S31500004D002D490A6872B92D4B2D4823F00703C0E9D7
S31500004D1000322C480125026042F2F87218604260A7
S31500004D205A600D6034B104F00700A0F11103A342EC
S31500004D3004D2002401F07AF92046F8BD1034211A75
S31500004D400029F6DD204E35688D42F2D31C4B9C4679
S31500004D501B6803E01A6822B19C4613465A688A42C9
S31500004D60F8D3184A9342E4D01A68001BDCF80040D6
S31500004D70CCF800205A6808341044102811D903EBE7
S31500004D80010CCCF804005960DCF804700C4A10469B
S31500004D9012685168B942FAD3CCF80020C0F800C0B6
S31500004DA05A680021AD1A42F00042C3E9001235608C
S31500004DB001F03CF92046F8BD94180020AF180020F9
S31500004DC0A018002098180020E401002028B338B568
S31500004DD050F8043C0446002BA0F1080525DA50F8EB
S31500004DE0082CDAB923F0004340F8043C01F016F928
S31500004DF0114B54F8040C19461B685A688242FAD3C0
S31500004E000E4A44F8083C0D6054F8043C11680B4403
S31500004E101360BDE8384001F009B9704740F2171138
S31500004E20074B084A0848FFF7D1FD4FF48B71074B33
S31500004E30044A0548FFF7CAFDA0180020E401002037
S31500004E409CBC0000E40F03005CBC0000E8BB000053
S31500004E504FF0FF31002200F10803C0E90131C0E93B
S31500004E6003330260704700BF00230361704700BF31
S31500004E7043684B609A688A6051609960086103686C
S31500004E8001330360704700BF30B40D686B1C10D04F
S31500004E9000F108031C465B681A68AA42FAD94B60FF
S31500004EA099608C6061600861036830BC01330360FF
S31500004EB0704704696368F2E70369D0E901128A6002
S31500004EC0416851605A68824204BF82685A60002273
S31500004ED002611A68013A1A601868704770B516467A
S31500004EE0026C0446856B2AB9066801354EB3104636
S31500004EF0A56370BD8EB9406804F022F86368216C22
S31500004F00A2680B449342636028BF236805F101053C
S31500004F1028BF6360A563002070BDC06804F010F868
S31500004F20226CE36851429B1A2268E360934202D2E4
S31500004F30A3680B44E360022E08D00135A563002068
S31500004F4070BD806801F0D2FBA660D1E7012D38BFA5
S31500004F500125DFE770B50546FEF78AFA95F8453074
S31500004F605CB2002C14DD05F1240603E0631EDAB200
S31500004F705CB26AB16B6A5BB1304601F087FA002811
S31500004F80F4D001F04FFB631EDAB25CB2002AF1D115
S31500004F90FF2385F84530FEF793FAFEF769FA95F890
S31500004FA044305CB2002C14DD05F1100603E0631EEC
S31500004FB0DAB25CB26AB12B695BB1304601F066FACF
S31500004FC00028F4D001F02EFB631EDAB25CB2002A90
S31500004FD0F1D1FF2385F84430BDE87040FEF770BA82
S31500004FE070B5002848D0C56B0446002D3DD0026C34
S31500004FF0A2FB0525002D38D10E46FEF739FAD4E975
S315000050000F30FF2100FB03F32268181A6260134475
S315000050100244A563C4E9023284F8441084F84510BA
S31500005020BEB923691BB9FEF74BFA012070BD04F126
S31500005030100001F02BFA0028F5D04FF08052124BE9
S315000050405A60BFF34F8FBFF36F8FFEF739FA012017
S3150000505070BD04F11000FFF7FBFE04F12400FFF71A
S31500005060F7FEFEF72DFA012070BD40F26311074BE3
S31500005070074A0848FFF7AAFC4FF49771064B044A03
S315000050800448FFF7A3FC00BF00ED00E000BD0000F0
S315000050907C100300CCBC0000F8BC000070B582B0E8
S315000050A033B30646E8B10D461C4692B1C9B1482352
S315000050B00193019B482B22D101212046C4E90F65AB
S315000050C0226084F84610019BFFF78AFF204602B053
S315000050D070BD31B948230193019B482B0FD122465D
S315000050E0EAE74FF4D071094B094A0A48FFF76EFC0C
S315000050F040F27711084B064A0648FFF767FC40F274
S315000051008911064B024A0348FFF760FC50BD0000B8
S3150000511060100300CCBC000024BD000034BD0000BC
S3150000512030B583B0C0B188420D4615D314460AB3D4
S3150000513048230193019B482B15D1012100232260AE
S31500005140D063204684F846102364019AFFF748FF8F
S315000051502046A56303B030BD40F24731094B0A4AE9
S315000051600A48FFF733FC40F28911094B094A074800
S31500005170FFF72CFC40F27711074B064A0348FFF76E
S3150000518025FC00BF5CBD00003C100300CCBC000049
S3150000519034BD00006010030024BD00002DE9F0417D
S315000051A084B00192002800F0AF8004460F461E46E8
S315000051B0002900F08B80022E03D1E36B012B40F017
S315000051C09C8001F035FA002867D0FEF751F9A26BF2
S315000051D0E36B9A4253D3022E51D00020DFF844816C
S315000051E005460DE0FEF76CF92046FFF7B3FE00F02A
S315000051F01DFFFEF73DF9A26BE36B01209A423ED3F9
S31500005200019B002B6DD0B0B3FEF75AF900F006FFF4
S31500005210FEF72EF994F84430FF2B08BF84F844506B
S3150000522094F84530FF2B08BF84F84550FEF748F93F
S3150000523002A801A901F0AEF9002858D1FEF718F925
S31500005240A26BE36B9A42CDD1FEF73AF9019904F1CC
S31500005250100001F0CBF82046FFF77CFE00F0E6FEDA
S315000052600028C6D14FF08053C8F80430BFF34F8FE3
S31500005270BFF36F8FBDE702A801F080F9C4E732469D
S3150000528039462046FFF72AFE636A83B9A8B9FEF7B6
S3150000529017F9012004B0BDE8F081019B002B94D0E2
S315000052A040F282311C4B1D4A1D48FFF78FFB04F16B
S315000052B0240001F0EBF80028E9D04FF08052194B9A
S315000052C05A60BFF34F8FBFF36F8FE0E7036C002B7D
S315000052D03FF471AF40F27E31134B104A1048FFF78E
S315000052E075FBFEF7EDF8002004B0BDE8F08120461E
S315000052F0FFF730FE00F09AFEF5E740F27F310B4BE8
S31500005300064A0748FFF762FB40F27D31084B034A25
S315000053100348FFF75BFB00BF0CBE0000281003002C
S31500005320CCBC000000ED00E064BD0000BCBD000088
S31500005330F8BC000038B54820FFF7DEFC044688B10B
S31500005340002501212060C0E90F1580F84650FFF7BF
S3150000535047FE2B462A4629462046A5602560E5607D
S31500005360FFF71CFF204638BDF0B585B00192002836
S3150000537000F0A38004460E4600296ED001F058F9CD
S31500005380002857D0FEF774F8A56B002D6FD1019B4E
S31500005390002B35D002A801F0F1F82F46FEF790F861
S315000053A000F03CFEFEF764F894F84430FF2B08BF8B
S315000053B084F8447094F84530FF2B08BF84F8457094
S315000053C0FEF77EF801A902A801F0E4F8E8B9FEF7B5
S315000053D04FF8A36B33BBFEF773F8019904F1240071
S315000053E001F004F82046FFF7B5FD00F01FFE58B3A4
S315000053F0FEF73EF8A56B002D39D1019B002BCDD1D0
S31500005400FEF75EF8002005B0F0BD2046FFF7A2FDCE
S3150000541000F00CFEFEF72CF8A36B002BF0D0FEF785
S315000054204FF8E5E7FEF74CF82046FFF793FD00F04E
S31500005430FDFDDDE7019B002BA4D040F2A551224BD8
S31500005440224A2348FFF7C2FA4FF08052214B5A6096
S31500005450BFF34F8FBFF36F8FCAE7036C002B8DD05E
S315000054604FF4B4611C4B194A1948FFF7AFFA226C86
S315000054705AB1E168A36811449942E16028BF2168E6
S31500005480304628BFE16003F05BFD013DA56323695B
S3150000549023B9FEF715F8012005B0F0BD04F11000A0
S315000054A000F0F4FF0028F4D04FF08052094B5A6008
S315000054B0BFF34F8FBFF36F8FEBE740F29C51074B63
S315000054C0024A0348FFF782FA0CBE000018100300D8
S315000054D0CCBC000000ED00E0ECBE0000E0BE000029
S315000054E0F0B585B00191002800F0BA80066C04463C
S315000054F0002E40F0AE8001F09BF80546002855D0FE
